{
  "_format": "hh-sol-artifact-1",
  "contractName": "POAPToken",
  "sourceName": "contracts/POAPToken.sol",
  "abi": [
    {
      "inputs": [
        {
          "internalType": "string",
          "name": "_name",
          "type": "string"
        },
        {
          "internalType": "string",
          "name": "_symbol",
          "type": "string"
        },
        {
          "internalType": "string",
          "name": "_baseURI",
          "type": "string"
        }
      ],
      "stateMutability": "nonpayable",
      "type": "constructor"
    },
    {
      "inputs": [
        {
          "internalType": "address",
          "name": "sender",
          "type": "address"
        },
        {
          "internalType": "uint256",
          "name": "tokenId",
          "type": "uint256"
        },
        {
          "internalType": "address",
          "name": "owner",
          "type": "address"
        }
      ],
      "name": "ERC721IncorrectOwner",
      "type": "error"
    },
    {
      "inputs": [
        {
          "internalType": "address",
          "name": "operator",
          "type": "address"
        },
        {
          "internalType": "uint256",
          "name": "tokenId",
          "type": "uint256"
        }
      ],
      "name": "ERC721InsufficientApproval",
      "type": "error"
    },
    {
      "inputs": [
        {
          "internalType": "address",
          "name": "approver",
          "type": "address"
        }
      ],
      "name": "ERC721InvalidApprover",
      "type": "error"
    },
    {
      "inputs": [
        {
          "internalType": "address",
          "name": "operator",
          "type": "address"
        }
      ],
      "name": "ERC721InvalidOperator",
      "type": "error"
    },
    {
      "inputs": [
        {
          "internalType": "address",
          "name": "owner",
          "type": "address"
        }
      ],
      "name": "ERC721InvalidOwner",
      "type": "error"
    },
    {
      "inputs": [
        {
          "internalType": "address",
          "name": "receiver",
          "type": "address"
        }
      ],
      "name": "ERC721InvalidReceiver",
      "type": "error"
    },
    {
      "inputs": [
        {
          "internalType": "address",
          "name": "sender",
          "type": "address"
        }
      ],
      "name": "ERC721InvalidSender",
      "type": "error"
    },
    {
      "inputs": [
        {
          "internalType": "uint256",
          "name": "tokenId",
          "type": "uint256"
        }
      ],
      "name": "ERC721NonexistentToken",
      "type": "error"
    },
    {
      "inputs": [
        {
          "internalType": "address",
          "name": "owner",
          "type": "address"
        }
      ],
      "name": "OwnableInvalidOwner",
      "type": "error"
    },
    {
      "inputs": [
        {
          "internalType": "address",
          "name": "account",
          "type": "address"
        }
      ],
      "name": "OwnableUnauthorizedAccount",
      "type": "error"
    },
    {
      "anonymous": false,
      "inputs": [
        {
          "indexed": true,
          "internalType": "address",
          "name": "owner",
          "type": "address"
        },
        {
          "indexed": true,
          "internalType": "address",
          "name": "approved",
          "type": "address"
        },
        {
          "indexed": true,
          "internalType": "uint256",
          "name": "tokenId",
          "type": "uint256"
        }
      ],
      "name": "Approval",
      "type": "event"
    },
    {
      "anonymous": false,
      "inputs": [
        {
          "indexed": true,
          "internalType": "address",
          "name": "owner",
          "type": "address"
        },
        {
          "indexed": true,
          "internalType": "address",
          "name": "operator",
          "type": "address"
        },
        {
          "indexed": false,
          "internalType": "bool",
          "name": "approved",
          "type": "bool"
        }
      ],
      "name": "ApprovalForAll",
      "type": "event"
    },
    {
      "anonymous": false,
      "inputs": [
        {
          "indexed": true,
          "internalType": "address",
          "name": "minter",
          "type": "address"
        }
      ],
      "name": "MinterAdded",
      "type": "event"
    },
    {
      "anonymous": false,
      "inputs": [
        {
          "indexed": true,
          "internalType": "address",
          "name": "minter",
          "type": "address"
        }
      ],
      "name": "MinterRemoved",
      "type": "event"
    },
    {
      "anonymous": false,
      "inputs": [
        {
          "indexed": true,
          "internalType": "address",
          "name": "previousOwner",
          "type": "address"
        },
        {
          "indexed": true,
          "internalType": "address",
          "name": "newOwner",
          "type": "address"
        }
      ],
      "name": "OwnershipTransferred",
      "type": "event"
    },
    {
      "anonymous": false,
      "inputs": [
        {
          "indexed": true,
          "internalType": "uint256",
          "name": "tokenId",
          "type": "uint256"
        },
        {
          "indexed": true,
          "internalType": "address",
          "name": "to",
          "type": "address"
        },
        {
          "indexed": true,
          "internalType": "uint256",
          "name": "occasionId",
          "type": "uint256"
        }
      ],
      "name": "POAPMinted",
      "type": "event"
    },
    {
      "anonymous": false,
      "inputs": [
        {
          "indexed": true,
          "internalType": "address",
          "name": "from",
          "type": "address"
        },
        {
          "indexed": true,
          "internalType": "address",
          "name": "to",
          "type": "address"
        },
        {
          "indexed": true,
          "internalType": "uint256",
          "name": "tokenId",
          "type": "uint256"
        }
      ],
      "name": "Transfer",
      "type": "event"
    },
    {
      "inputs": [
        {
          "internalType": "address",
          "name": "_minter",
          "type": "address"
        }
      ],
      "name": "addMinter",
      "outputs": [],
      "stateMutability": "nonpayable",
      "type": "function"
    },
    {
      "inputs": [
        {
          "internalType": "address",
          "name": "to",
          "type": "address"
        },
        {
          "internalType": "uint256",
          "name": "tokenId",
          "type": "uint256"
        }
      ],
      "name": "approve",
      "outputs": [],
      "stateMutability": "nonpayable",
      "type": "function"
    },
    {
      "inputs": [
        {
          "internalType": "address",
          "name": "owner",
          "type": "address"
        }
      ],
      "name": "balanceOf",
      "outputs": [
        {
          "internalType": "uint256",
          "name": "",
          "type": "uint256"
        }
      ],
      "stateMutability": "view",
      "type": "function"
    },
    {
      "inputs": [],
      "name": "baseURI",
      "outputs": [
        {
          "internalType": "string",
          "name": "",
          "type": "string"
        }
      ],
      "stateMutability": "view",
      "type": "function"
    },
    {
      "inputs": [
        {
          "internalType": "address[]",
          "name": "recipients",
          "type": "address[]"
        },
        {
          "internalType": "uint256",
          "name": "occasionId",
          "type": "uint256"
        }
      ],
      "name": "batchMintPOAP",
      "outputs": [
        {
          "internalType": "uint256[]",
          "name": "",
          "type": "uint256[]"
        }
      ],
      "stateMutability": "nonpayable",
      "type": "function"
    },
    {
      "inputs": [
        {
          "internalType": "uint256",
          "name": "tokenId",
          "type": "uint256"
        }
      ],
      "name": "burn",
      "outputs": [],
      "stateMutability": "nonpayable",
      "type": "function"
    },
    {
      "inputs": [
        {
          "internalType": "uint256",
          "name": "tokenId",
          "type": "uint256"
        }
      ],
      "name": "getApproved",
      "outputs": [
        {
          "internalType": "address",
          "name": "",
          "type": "address"
        }
      ],
      "stateMutability": "view",
      "type": "function"
    },
    {
      "inputs": [
        {
          "internalType": "uint256",
          "name": "tokenId",
          "type": "uint256"
        }
      ],
      "name": "getOccasionId",
      "outputs": [
        {
          "internalType": "uint256",
          "name": "",
          "type": "uint256"
        }
      ],
      "stateMutability": "view",
      "type": "function"
    },
    {
      "inputs": [
        {
          "internalType": "address",
          "name": "user",
          "type": "address"
        },
        {
          "internalType": "uint256",
          "name": "occasionId",
          "type": "uint256"
        }
      ],
      "name": "getUserPOAP",
      "outputs": [
        {
          "internalType": "uint256",
          "name": "",
          "type": "uint256"
        }
      ],
      "stateMutability": "view",
      "type": "function"
    },
    {
      "inputs": [
        {
          "internalType": "address",
          "name": "user",
          "type": "address"
        },
        {
          "internalType": "uint256",
          "name": "occasionId",
          "type": "uint256"
        }
      ],
      "name": "hasPOAP",
      "outputs": [
        {
          "internalType": "bool",
          "name": "",
          "type": "bool"
        }
      ],
      "stateMutability": "view",
      "type": "function"
    },
    {
      "inputs": [
        {
          "internalType": "address",
          "name": "owner",
          "type": "address"
        },
        {
          "internalType": "address",
          "name": "operator",
          "type": "address"
        }
      ],
      "name": "isApprovedForAll",
      "outputs": [
        {
          "internalType": "bool",
          "name": "",
          "type": "bool"
        }
      ],
      "stateMutability": "view",
      "type": "function"
    },
    {
      "inputs": [
        {
          "internalType": "address",
          "name": "to",
          "type": "address"
        },
        {
          "internalType": "uint256",
          "name": "occasionId",
          "type": "uint256"
        }
      ],
      "name": "mintPOAP",
      "outputs": [
        {
          "internalType": "uint256",
          "name": "",
          "type": "uint256"
        }
      ],
      "stateMutability": "nonpayable",
      "type": "function"
    },
    {
      "inputs": [
        {
          "internalType": "address",
          "name": "",
          "type": "address"
        }
      ],
      "name": "minters",
      "outputs": [
        {
          "internalType": "bool",
          "name": "",
          "type": "bool"
        }
      ],
      "stateMutability": "view",
      "type": "function"
    },
    {
      "inputs": [],
      "name": "name",
      "outputs": [
        {
          "internalType": "string",
          "name": "",
          "type": "string"
        }
      ],
      "stateMutability": "view",
      "type": "function"
    },
    {
      "inputs": [],
      "name": "nextTokenId",
      "outputs": [
        {
          "internalType": "uint256",
          "name": "",
          "type": "uint256"
        }
      ],
      "stateMutability": "view",
      "type": "function"
    },
    {
      "inputs": [],
      "name": "owner",
      "outputs": [
        {
          "internalType": "address",
          "name": "",
          "type": "address"
        }
      ],
      "stateMutability": "view",
      "type": "function"
    },
    {
      "inputs": [
        {
          "internalType": "uint256",
          "name": "tokenId",
          "type": "uint256"
        }
      ],
      "name": "ownerOf",
      "outputs": [
        {
          "internalType": "address",
          "name": "",
          "type": "address"
        }
      ],
      "stateMutability": "view",
      "type": "function"
    },
    {
      "inputs": [
        {
          "internalType": "address",
          "name": "_minter",
          "type": "address"
        }
      ],
      "name": "removeMinter",
      "outputs": [],
      "stateMutability": "nonpayable",
      "type": "function"
    },
    {
      "inputs": [],
      "name": "renounceOwnership",
      "outputs": [],
      "stateMutability": "nonpayable",
      "type": "function"
    },
    {
      "inputs": [
        {
          "internalType": "address",
          "name": "from",
          "type": "address"
        },
        {
          "internalType": "address",
          "name": "to",
          "type": "address"
        },
        {
          "internalType": "uint256",
          "name": "tokenId",
          "type": "uint256"
        }
      ],
      "name": "safeTransferFrom",
      "outputs": [],
      "stateMutability": "nonpayable",
      "type": "function"
    },
    {
      "inputs": [
        {
          "internalType": "address",
          "name": "from",
          "type": "address"
        },
        {
          "internalType": "address",
          "name": "to",
          "type": "address"
        },
        {
          "internalType": "uint256",
          "name": "tokenId",
          "type": "uint256"
        },
        {
          "internalType": "bytes",
          "name": "data",
          "type": "bytes"
        }
      ],
      "name": "safeTransferFrom",
      "outputs": [],
      "stateMutability": "nonpayable",
      "type": "function"
    },
    {
      "inputs": [
        {
          "internalType": "address",
          "name": "operator",
          "type": "address"
        },
        {
          "internalType": "bool",
          "name": "approved",
          "type": "bool"
        }
      ],
      "name": "setApprovalForAll",
      "outputs": [],
      "stateMutability": "nonpayable",
      "type": "function"
    },
    {
      "inputs": [
        {
          "internalType": "string",
          "name": "_newBaseURI",
          "type": "string"
        }
      ],
      "name": "setBaseURI",
      "outputs": [],
      "stateMutability": "nonpayable",
      "type": "function"
    },
    {
      "inputs": [
        {
          "internalType": "bytes4",
          "name": "interfaceId",
          "type": "bytes4"
        }
      ],
      "name": "supportsInterface",
      "outputs": [
        {
          "internalType": "bool",
          "name": "",
          "type": "bool"
        }
      ],
      "stateMutability": "view",
      "type": "function"
    },
    {
      "inputs": [],
      "name": "symbol",
      "outputs": [
        {
          "internalType": "string",
          "name": "",
          "type": "string"
        }
      ],
      "stateMutability": "view",
      "type": "function"
    },
    {
      "inputs": [
        {
          "internalType": "uint256",
          "name": "",
          "type": "uint256"
        }
      ],
      "name": "tokenToOccasion",
      "outputs": [
        {
          "internalType": "uint256",
          "name": "",
          "type": "uint256"
        }
      ],
      "stateMutability": "view",
      "type": "function"
    },
    {
      "inputs": [
        {
          "internalType": "uint256",
          "name": "tokenId",
          "type": "uint256"
        }
      ],
      "name": "tokenURI",
      "outputs": [
        {
          "internalType": "string",
          "name": "",
          "type": "string"
        }
      ],
      "stateMutability": "view",
      "type": "function"
    },
    {
      "inputs": [
        {
          "internalType": "address",
          "name": "from",
          "type": "address"
        },
        {
          "internalType": "address",
          "name": "to",
          "type": "address"
        },
        {
          "internalType": "uint256",
          "name": "tokenId",
          "type": "uint256"
        }
      ],
      "name": "transferFrom",
      "outputs": [],
      "stateMutability": "nonpayable",
      "type": "function"
    },
    {
      "inputs": [
        {
          "internalType": "address",
          "name": "newOwner",
          "type": "address"
        }
      ],
      "name": "transferOwnership",
      "outputs": [],
      "stateMutability": "nonpayable",
      "type": "function"
    },
    {
      "inputs": [
        {
          "internalType": "address",
          "name": "",
          "type": "address"
        },
        {
          "internalType": "uint256",
          "name": "",
          "type": "uint256"
        }
      ],
      "name": "userOccasionPOAP",
      "outputs": [
        {
          "internalType": "uint256",
          "name": "",
          "type": "uint256"
        }
      ],
      "stateMutability": "view",
      "type": "function"
    }
  ],
  "bytecode": "0x608060405260016007553480156200001657600080fd5b50604051620022cc380380620022cc8339810160408190526200003991620001c9565b33838360006200004a8382620002eb565b506001620000598282620002eb565b5050506001600160a01b0381166200008b57604051631e4fbdf760e01b81526000600482015260240160405180910390fd5b6200009681620000af565b506008620000a58282620002eb565b50505050620003b7565b600680546001600160a01b038381166001600160a01b0319831681179093556040519116919082907f8be0079c531659141344cd1fd0a4f28419497f9722a3daafe3b4186f6b6457e090600090a35050565b634e487b7160e01b600052604160045260246000fd5b600082601f8301126200012957600080fd5b81516001600160401b038082111562000146576200014662000101565b604051601f8301601f19908116603f0116810190828211818310171562000171576200017162000101565b81604052838152602092508660208588010111156200018f57600080fd5b600091505b83821015620001b3578582018301518183018401529082019062000194565b6000602085830101528094505050505092915050565b600080600060608486031215620001df57600080fd5b83516001600160401b0380821115620001f757600080fd5b620002058783880162000117565b945060208601519150808211156200021c57600080fd5b6200022a8783880162000117565b935060408601519150808211156200024157600080fd5b50620002508682870162000117565b9150509250925092565b600181811c908216806200026f57607f821691505b6020821081036200029057634e487b7160e01b600052602260045260246000fd5b50919050565b601f821115620002e6576000816000526020600020601f850160051c81016020861015620002c15750805b601f850160051c820191505b81811015620002e257828155600101620002cd565b5050505b505050565b81516001600160401b0381111562000307576200030762000101565b6200031f816200031884546200025a565b8462000296565b602080601f8311600181146200035757600084156200033e5750858301515b600019600386901b1c1916600185901b178555620002e2565b600085815260208120601f198616915b82811015620003885788860151825594840194600190910190840162000367565b5085821015620003a75787850151600019600388901b60f8161c191681555b5050505050600190811b01905550565b611f0580620003c76000396000f3fe608060405234801561001057600080fd5b50600436106101da5760003560e01c8063715018a611610104578063b6ab993b116100a2578063e985e9c511610071578063e985e9c514610411578063efb284f414610424578063f2fde38b1461045a578063f46eccc41461046d57600080fd5b8063b6ab993b146103c5578063b88d4fde146103d8578063c87b56dd146103eb578063e488451f146103fe57600080fd5b80638da5cb5b116100de5780638da5cb5b1461038657806395d89b4114610397578063983b2d561461039f578063a22cb465146103b257600080fd5b8063715018a61461035557806375794a3c1461035d57806389ce6e251461036657600080fd5b80633092afd51161017c57806355f804b31161014b57806355f804b3146103145780636352211e146103275780636c0360eb1461033a57806370a082311461034257600080fd5b80633092afd5146102bb57806342842e0e146102ce57806342966c68146102e157806350ef20b3146102f457600080fd5b8063095ea7b3116101b8578063095ea7b3146102475780630cf652a01461025c57806318a5a87e1461026f57806323b872dd146102a857600080fd5b806301ffc9a7146101df57806306fdde0314610207578063081812fc1461021c575b600080fd5b6101f26101ed366004611830565b610490565b60405190151581526020015b60405180910390f35b61020f6104e2565b6040516101fe91906118a4565b61022f61022a3660046118b7565b610574565b6040516001600160a01b0390911681526020016101fe565b61025a6102553660046118e5565b61059d565b005b6101f261026a3660046118e5565b6105ac565b61029a61027d3660046118e5565b600b60209081526000928352604080842090915290825290205481565b6040519081526020016101fe565b61025a6102b6366004611911565b610666565b61025a6102c9366004611952565b6106f6565b61025a6102dc366004611911565b610747565b61025a6102ef3660046118b7565b610767565b61030761030236600461196f565b6107c5565b6040516101fe91906119ea565b61025a610322366004611aba565b610ad8565b61022f6103353660046118b7565b610aec565b61020f610af7565b61029a610350366004611952565b610b85565b61025a610bcd565b61029a60075481565b61029a6103743660046118b7565b600a6020526000908152604090205481565b6006546001600160a01b031661022f565b61020f610be1565b61025a6103ad366004611952565b610bf0565b61025a6103c0366004611b03565b610c93565b61029a6103d33660046118b7565b610c9e565b61025a6103e6366004611b41565b610d0c565b61020f6103f93660046118b7565b610d24565b61029a61040c3660046118e5565b610dce565b6101f261041f366004611bc1565b610f85565b61029a6104323660046118e5565b6001600160a01b03919091166000908152600b60209081526040808320938352929052205490565b61025a610468366004611952565b610fb3565b6101f261047b366004611952565b60096020526000908152604090205460ff1681565b60006001600160e01b031982166380ac58cd60e01b14806104c157506001600160e01b03198216635b5e139f60e01b145b806104dc57506301ffc9a760e01b6001600160e01b03198316145b92915050565b6060600080546104f190611bef565b80601f016020809104026020016040519081016040528092919081815260200182805461051d90611bef565b801561056a5780601f1061053f5761010080835404028352916020019161056a565b820191906000526020600020905b81548152906001019060200180831161054d57829003601f168201915b5050505050905090565b600061057f82610fee565b506000828152600460205260409020546001600160a01b03166104dc565b6105a8828233611027565b5050565b6001600160a01b0382166000908152600b602090815260408083208484529091528120548082036105e15760009150506104dc565b6040516331a9108f60e11b8152600481018290523090636352211e90602401602060405180830381865afa925050508015610639575060408051601f3d908101601f1916820190925261063691810190611c29565b60015b6106475760009150506104dc565b846001600160a01b0316816001600160a01b0316149250505092915050565b6001600160a01b03821661069557604051633250574960e11b8152600060048201526024015b60405180910390fd5b60006106a2838333611034565b9050836001600160a01b0316816001600160a01b0316146106f0576040516364283d7b60e01b81526001600160a01b038086166004830152602482018490528216604482015260640161068c565b50505050565b6106fe6110ce565b6001600160a01b038116600081815260096020526040808220805460ff19169055517fe94479a9f7e1952cc78f2d6baab678adc1b772d936c6583def489e524cb666929190a250565b61076283838360405180602001604052806000815250610d0c565b505050565b3361077182610aec565b6001600160a01b0316146107b95760405162461bcd60e51b815260206004820152600f60248201526e2737ba103a37b5b2b71037bbb732b960891b604482015260640161068c565b6107c2816110fb565b50565b3360009081526009602052604090205460609060ff16806107f057506006546001600160a01b031633145b6108345760405162461bcd60e51b81526020600482015260156024820152742737ba1030baba3437b934bd32b21036b4b73a32b960591b604482015260640161068c565b8260008167ffffffffffffffff81111561085057610850611a2e565b604051908082528060200260200182016040528015610879578160200160208202803683370190505b50905060005b82811015610ace57600087878381811061089b5761089b611c46565b90506020020160208101906108b09190611952565b6001600160a01b0316036108fa5760405162461bcd60e51b8152602060048201526011602482015270125b9d985b1a59081c9958da5c1a595b9d607a1b604482015260640161068c565b600b600088888481811061091057610910611c46565b90506020020160208101906109259190611952565b6001600160a01b03168152602080820192909252604090810160009081208882529092529020541561098f5760405162461bcd60e51b8152602060048201526013602482015272504f415020616c72656164792065786973747360681b604482015260640161068c565b60078054600091826109a083611c5c565b9190505590506109d68888848181106109bb576109bb611c46565b90506020020160208101906109d09190611952565b82611136565b6000818152600a602052604081208790558190600b908a8a868181106109fe576109fe611c46565b9050602002016020810190610a139190611952565b6001600160a01b03166001600160a01b0316815260200190815260200160002060008881526020019081526020016000208190555080838381518110610a5b57610a5b611c46565b60200260200101818152505085888884818110610a7a57610a7a611c46565b9050602002016020810190610a8f9190611952565b6001600160a01b0316827fb7722e463c06a2e7748c5cd57edc78ab5b22577cf27492ad69a2afcfe4082a0d60405160405180910390a45060010161087f565b5095945050505050565b610ae06110ce565b60086105a88282611ccb565b60006104dc82610fee565b60088054610b0490611bef565b80601f0160208091040260200160405190810160405280929190818152602001828054610b3090611bef565b8015610b7d5780601f10610b5257610100808354040283529160200191610b7d565b820191906000526020600020905b815481529060010190602001808311610b6057829003601f168201915b505050505081565b60006001600160a01b038216610bb1576040516322718ad960e21b81526000600482015260240161068c565b506001600160a01b031660009081526003602052604090205490565b610bd56110ce565b610bdf6000611150565b565b6060600180546104f190611bef565b610bf86110ce565b6001600160a01b038116610c475760405162461bcd60e51b8152602060048201526016602482015275496e76616c6964206d696e746572206164647265737360501b604482015260640161068c565b6001600160a01b038116600081815260096020526040808220805460ff19166001179055517f6ae172837ea30b801fbfcdd4108aa1d5bf8ff775444fd70256b44e6bf3dfc3f69190a250565b6105a83383836111a2565b6000818152600260205260408120546001600160a01b0316610cf95760405162461bcd60e51b8152602060048201526014602482015273151bdad95b88191bd95cc81b9bdd08195e1a5cdd60621b604482015260640161068c565b506000908152600a602052604090205490565b610d17848484610666565b6106f03385858585611241565b6000818152600260205260409020546060906001600160a01b0316610d825760405162461bcd60e51b8152602060048201526014602482015273151bdad95b88191bd95cc81b9bdd08195e1a5cdd60621b604482015260640161068c565b6000828152600a60205260409020546008610d9c8261136c565b610da58561136c565b604051602001610db793929190611da7565b604051602081830303815290604052915050919050565b3360009081526009602052604081205460ff1680610df657506006546001600160a01b031633145b610e3a5760405162461bcd60e51b81526020600482015260156024820152742737ba1030baba3437b934bd32b21036b4b73a32b960591b604482015260640161068c565b6001600160a01b038316610e845760405162461bcd60e51b8152602060048201526011602482015270125b9d985b1a59081c9958da5c1a595b9d607a1b604482015260640161068c565b6001600160a01b0383166000908152600b6020908152604080832085845290915290205415610f005760405162461bcd60e51b815260206004820152602260248201527f504f415020616c7265616479206d696e74656420666f722074686973206576656044820152611b9d60f21b606482015260840161068c565b6007805460009182610f1183611c5c565b919050559050610f218482611136565b6000818152600a602090815260408083208690556001600160a01b038716808452600b835281842087855290925280832084905551859284917fb7722e463c06a2e7748c5cd57edc78ab5b22577cf27492ad69a2afcfe4082a0d9190a49392505050565b6001600160a01b03918216600090815260056020908152604080832093909416825291909152205460ff1690565b610fbb6110ce565b6001600160a01b038116610fe557604051631e4fbdf760e01b81526000600482015260240161068c565b6107c281611150565b6000818152600260205260408120546001600160a01b0316806104dc57604051637e27328960e01b81526004810184905260240161068c565b61076283838360016113ff565b600080611042858585611505565b90506001600160a01b0381161580159061106457506001600160a01b03851615155b156110c65760405162461bcd60e51b815260206004820152602c60248201527f504f415020746f6b656e7320617265206e6f6e2d7472616e7366657261626c6560448201526b2028536f756c626f756e642960a01b606482015260840161068c565b949350505050565b6006546001600160a01b03163314610bdf5760405163118cdaa760e01b815233600482015260240161068c565b600061110a6000836000611034565b90506001600160a01b0381166105a857604051637e27328960e01b81526004810183905260240161068c565b6105a88282604051806020016040528060008152506115fe565b600680546001600160a01b038381166001600160a01b0319831681179093556040519116919082907f8be0079c531659141344cd1fd0a4f28419497f9722a3daafe3b4186f6b6457e090600090a35050565b6001600160a01b0382166111d457604051630b61174360e31b81526001600160a01b038316600482015260240161068c565b6001600160a01b03838116600081815260056020908152604080832094871680845294825291829020805460ff191686151590811790915591519182527f17307eab39ab6107e8899845ad3d59bd9653f200f220920489ca2b5937696c31910160405180910390a3505050565b6001600160a01b0383163b1561136557604051630a85bd0160e11b81526001600160a01b0384169063150b7a0290611283908890889087908790600401611e75565b6020604051808303816000875af19250505080156112be575060408051601f3d908101601f191682019092526112bb91810190611eb2565b60015b611327573d8080156112ec576040519150601f19603f3d011682016040523d82523d6000602084013e6112f1565b606091505b50805160000361131f57604051633250574960e11b81526001600160a01b038516600482015260240161068c565b805160208201fd5b6001600160e01b03198116630a85bd0160e11b1461136357604051633250574960e11b81526001600160a01b038516600482015260240161068c565b505b5050505050565b6060600061137983611616565b600101905060008167ffffffffffffffff81111561139957611399611a2e565b6040519080825280601f01601f1916602001820160405280156113c3576020820181803683370190505b5090508181016020015b600019016f181899199a1a9b1b9c1cb0b131b232b360811b600a86061a8153600a85049450846113cd57509392505050565b808061141357506001600160a01b03821615155b156114d557600061142384610fee565b90506001600160a01b0383161580159061144f5750826001600160a01b0316816001600160a01b031614155b801561146257506114608184610f85565b155b1561148b5760405163a9fbf51f60e01b81526001600160a01b038416600482015260240161068c565b81156114d35783856001600160a01b0316826001600160a01b03167f8c5be1e5ebec7d5bd14f71427d1e84f3dd0314c0f7b2291e5b200ac8c7c3b92560405160405180910390a45b505b5050600090815260046020526040902080546001600160a01b0319166001600160a01b0392909216919091179055565b6000828152600260205260408120546001600160a01b0390811690831615611532576115328184866116ee565b6001600160a01b038116156115705761154f6000856000806113ff565b6001600160a01b038116600090815260036020526040902080546000190190555b6001600160a01b0385161561159f576001600160a01b0385166000908152600360205260409020805460010190555b60008481526002602052604080822080546001600160a01b0319166001600160a01b0389811691821790925591518793918516917fddf252ad1be2c89b69c2b068fc378daa952ba7f163c4a11628f55a4df523b3ef91a4949350505050565b6116088383611752565b610762336000858585611241565b60008072184f03e93ff9f4daa797ed6e38ed64bf6a1f0160401b83106116555772184f03e93ff9f4daa797ed6e38ed64bf6a1f0160401b830492506040015b6d04ee2d6d415b85acef81000000008310611681576d04ee2d6d415b85acef8100000000830492506020015b662386f26fc10000831061169f57662386f26fc10000830492506010015b6305f5e10083106116b7576305f5e100830492506008015b61271083106116cb57612710830492506004015b606483106116dd576064830492506002015b600a83106104dc5760010192915050565b6116f98383836117b7565b610762576001600160a01b03831661172757604051637e27328960e01b81526004810182905260240161068c565b60405163177e802f60e01b81526001600160a01b03831660048201526024810182905260440161068c565b6001600160a01b03821661177c57604051633250574960e11b81526000600482015260240161068c565b600061178a83836000611034565b90506001600160a01b03811615610762576040516339e3563760e11b81526000600482015260240161068c565b60006001600160a01b038316158015906110c65750826001600160a01b0316846001600160a01b031614806117f157506117f18484610f85565b806110c65750506000908152600460205260409020546001600160a01b03908116911614919050565b6001600160e01b0319811681146107c257600080fd5b60006020828403121561184257600080fd5b813561184d8161181a565b9392505050565b60005b8381101561186f578181015183820152602001611857565b50506000910152565b60008151808452611890816020860160208601611854565b601f01601f19169290920160200192915050565b60208152600061184d6020830184611878565b6000602082840312156118c957600080fd5b5035919050565b6001600160a01b03811681146107c257600080fd5b600080604083850312156118f857600080fd5b8235611903816118d0565b946020939093013593505050565b60008060006060848603121561192657600080fd5b8335611931816118d0565b92506020840135611941816118d0565b929592945050506040919091013590565b60006020828403121561196457600080fd5b813561184d816118d0565b60008060006040848603121561198457600080fd5b833567ffffffffffffffff8082111561199c57600080fd5b818601915086601f8301126119b057600080fd5b8135818111156119bf57600080fd5b8760208260051b85010111156119d457600080fd5b6020928301989097509590910135949350505050565b6020808252825182820181905260009190848201906040850190845b81811015611a2257835183529284019291840191600101611a06565b50909695505050505050565b634e487b7160e01b600052604160045260246000fd5b600067ffffffffffffffff80841115611a5f57611a5f611a2e565b604051601f8501601f19908116603f01168101908282118183101715611a8757611a87611a2e565b81604052809350858152868686011115611aa057600080fd5b858560208301376000602087830101525050509392505050565b600060208284031215611acc57600080fd5b813567ffffffffffffffff811115611ae357600080fd5b8201601f81018413611af457600080fd5b6110c684823560208401611a44565b60008060408385031215611b1657600080fd5b8235611b21816118d0565b915060208301358015158114611b3657600080fd5b809150509250929050565b60008060008060808587031215611b5757600080fd5b8435611b62816118d0565b93506020850135611b72816118d0565b925060408501359150606085013567ffffffffffffffff811115611b9557600080fd5b8501601f81018713611ba657600080fd5b611bb587823560208401611a44565b91505092959194509250565b60008060408385031215611bd457600080fd5b8235611bdf816118d0565b91506020830135611b36816118d0565b600181811c90821680611c0357607f821691505b602082108103611c2357634e487b7160e01b600052602260045260246000fd5b50919050565b600060208284031215611c3b57600080fd5b815161184d816118d0565b634e487b7160e01b600052603260045260246000fd5b600060018201611c7c57634e487b7160e01b600052601160045260246000fd5b5060010190565b601f821115610762576000816000526020600020601f850160051c81016020861015611cac5750805b601f850160051c820191505b8181101561136357828155600101611cb8565b815167ffffffffffffffff811115611ce557611ce5611a2e565b611cf981611cf38454611bef565b84611c83565b602080601f831160018114611d2e5760008415611d165750858301515b600019600386901b1c1916600185901b178555611363565b600085815260208120601f198616915b82811015611d5d57888601518255948401946001909101908401611d3e565b5085821015611d7b5787850151600019600388901b60f8161c191681555b5050505050600190811b01905550565b60008151611d9d818560208601611854565b9290920192915050565b6000808554611db581611bef565b60018281168015611dcd5760018114611de257611e11565b60ff1984168752821515830287019450611e11565b8960005260208060002060005b85811015611e085781548a820152908401908201611def565b50505082870194505b50505050686f63636173696f6e2d60b81b81528451611e37816009840160208901611854565b611e6a611e59611e53600984860101602f60f81b815260010190565b87611d8b565b64173539b7b760d91b815260050190565b979650505050505050565b6001600160a01b0385811682528416602082015260408101839052608060608201819052600090611ea890830184611878565b9695505050505050565b600060208284031215611ec457600080fd5b815161184d8161181a56fea2646970667358221220367aa56a272311d14d19dbd78591920e4577955e2f78bd66eeee0acbfc0b382364736f6c63430008180033",
  "linkReferences": {},
  "deployedLinkReferences": {}
}