{
  "_format": "hh-sol-artifact-1",
  "contractName": "TicketNFT",
  "sourceName": "contracts/TicketNFT.sol",
  "abi": [
    {
      "inputs": [
        {
          "internalType": "string",
          "name": "_name",
          "type": "string"
        },
        {
          "internalType": "string",
          "name": "_symbol",
          "type": "string"
        },
        {
          "internalType": "string",
          "name": "_baseURI",
          "type": "string"
        }
      ],
      "stateMutability": "nonpayable",
      "type": "constructor"
    },
    {
      "inputs": [
        {
          "internalType": "address",
          "name": "sender",
          "type": "address"
        },
        {
          "internalType": "uint256",
          "name": "tokenId",
          "type": "uint256"
        },
        {
          "internalType": "address",
          "name": "owner",
          "type": "address"
        }
      ],
      "name": "ERC721IncorrectOwner",
      "type": "error"
    },
    {
      "inputs": [
        {
          "internalType": "address",
          "name": "operator",
          "type": "address"
        },
        {
          "internalType": "uint256",
          "name": "tokenId",
          "type": "uint256"
        }
      ],
      "name": "ERC721InsufficientApproval",
      "type": "error"
    },
    {
      "inputs": [
        {
          "internalType": "address",
          "name": "approver",
          "type": "address"
        }
      ],
      "name": "ERC721InvalidApprover",
      "type": "error"
    },
    {
      "inputs": [
        {
          "internalType": "address",
          "name": "operator",
          "type": "address"
        }
      ],
      "name": "ERC721InvalidOperator",
      "type": "error"
    },
    {
      "inputs": [
        {
          "internalType": "address",
          "name": "owner",
          "type": "address"
        }
      ],
      "name": "ERC721InvalidOwner",
      "type": "error"
    },
    {
      "inputs": [
        {
          "internalType": "address",
          "name": "receiver",
          "type": "address"
        }
      ],
      "name": "ERC721InvalidReceiver",
      "type": "error"
    },
    {
      "inputs": [
        {
          "internalType": "address",
          "name": "sender",
          "type": "address"
        }
      ],
      "name": "ERC721InvalidSender",
      "type": "error"
    },
    {
      "inputs": [
        {
          "internalType": "uint256",
          "name": "tokenId",
          "type": "uint256"
        }
      ],
      "name": "ERC721NonexistentToken",
      "type": "error"
    },
    {
      "inputs": [
        {
          "internalType": "address",
          "name": "owner",
          "type": "address"
        }
      ],
      "name": "OwnableInvalidOwner",
      "type": "error"
    },
    {
      "inputs": [
        {
          "internalType": "address",
          "name": "account",
          "type": "address"
        }
      ],
      "name": "OwnableUnauthorizedAccount",
      "type": "error"
    },
    {
      "anonymous": false,
      "inputs": [
        {
          "indexed": true,
          "internalType": "address",
          "name": "owner",
          "type": "address"
        },
        {
          "indexed": true,
          "internalType": "address",
          "name": "approved",
          "type": "address"
        },
        {
          "indexed": true,
          "internalType": "uint256",
          "name": "tokenId",
          "type": "uint256"
        }
      ],
      "name": "Approval",
      "type": "event"
    },
    {
      "anonymous": false,
      "inputs": [
        {
          "indexed": true,
          "internalType": "address",
          "name": "owner",
          "type": "address"
        },
        {
          "indexed": true,
          "internalType": "address",
          "name": "operator",
          "type": "address"
        },
        {
          "indexed": false,
          "internalType": "bool",
          "name": "approved",
          "type": "bool"
        }
      ],
      "name": "ApprovalForAll",
      "type": "event"
    },
    {
      "anonymous": false,
      "inputs": [
        {
          "indexed": true,
          "internalType": "uint256",
          "name": "eventId",
          "type": "uint256"
        },
        {
          "indexed": false,
          "internalType": "string",
          "name": "name",
          "type": "string"
        },
        {
          "indexed": false,
          "internalType": "uint256",
          "name": "maxSupply",
          "type": "uint256"
        },
        {
          "indexed": false,
          "internalType": "string",
          "name": "uriPrefix",
          "type": "string"
        }
      ],
      "name": "EventCreated",
      "type": "event"
    },
    {
      "anonymous": false,
      "inputs": [
        {
          "indexed": true,
          "internalType": "address",
          "name": "previousOwner",
          "type": "address"
        },
        {
          "indexed": true,
          "internalType": "address",
          "name": "newOwner",
          "type": "address"
        }
      ],
      "name": "OwnershipTransferred",
      "type": "event"
    },
    {
      "anonymous": false,
      "inputs": [
        {
          "indexed": true,
          "internalType": "uint256",
          "name": "tokenId",
          "type": "uint256"
        },
        {
          "indexed": true,
          "internalType": "address",
          "name": "owner",
          "type": "address"
        }
      ],
      "name": "TicketBurned",
      "type": "event"
    },
    {
      "anonymous": false,
      "inputs": [
        {
          "indexed": true,
          "internalType": "uint256",
          "name": "tokenId",
          "type": "uint256"
        },
        {
          "indexed": true,
          "internalType": "uint256",
          "name": "eventId",
          "type": "uint256"
        },
        {
          "indexed": true,
          "internalType": "address",
          "name": "to",
          "type": "address"
        }
      ],
      "name": "TicketMinted",
      "type": "event"
    },
    {
      "anonymous": false,
      "inputs": [
        {
          "indexed": true,
          "internalType": "address",
          "name": "buyer",
          "type": "address"
        },
        {
          "indexed": true,
          "internalType": "uint256",
          "name": "eventId",
          "type": "uint256"
        },
        {
          "indexed": true,
          "internalType": "uint256",
          "name": "tokenId",
          "type": "uint256"
        },
        {
          "indexed": false,
          "internalType": "uint256",
          "name": "quantity",
          "type": "uint256"
        },
        {
          "indexed": false,
          "internalType": "uint256",
          "name": "totalPrice",
          "type": "uint256"
        }
      ],
      "name": "TicketPurchased",
      "type": "event"
    },
    {
      "anonymous": false,
      "inputs": [
        {
          "indexed": true,
          "internalType": "address",
          "name": "from",
          "type": "address"
        },
        {
          "indexed": true,
          "internalType": "address",
          "name": "to",
          "type": "address"
        },
        {
          "indexed": true,
          "internalType": "uint256",
          "name": "tokenId",
          "type": "uint256"
        }
      ],
      "name": "Transfer",
      "type": "event"
    },
    {
      "inputs": [
        {
          "internalType": "address",
          "name": "to",
          "type": "address"
        },
        {
          "internalType": "uint256",
          "name": "tokenId",
          "type": "uint256"
        }
      ],
      "name": "approve",
      "outputs": [],
      "stateMutability": "nonpayable",
      "type": "function"
    },
    {
      "inputs": [
        {
          "internalType": "address",
          "name": "owner",
          "type": "address"
        }
      ],
      "name": "balanceOf",
      "outputs": [
        {
          "internalType": "uint256",
          "name": "",
          "type": "uint256"
        }
      ],
      "stateMutability": "view",
      "type": "function"
    },
    {
      "inputs": [],
      "name": "baseURI",
      "outputs": [
        {
          "internalType": "string",
          "name": "",
          "type": "string"
        }
      ],
      "stateMutability": "view",
      "type": "function"
    },
    {
      "inputs": [
        {
          "internalType": "uint256",
          "name": "tokenId",
          "type": "uint256"
        }
      ],
      "name": "burn",
      "outputs": [],
      "stateMutability": "nonpayable",
      "type": "function"
    },
    {
      "inputs": [
        {
          "internalType": "uint256",
          "name": "eventId",
          "type": "uint256"
        },
        {
          "internalType": "string",
          "name": "name",
          "type": "string"
        },
        {
          "internalType": "uint256",
          "name": "maxSupply",
          "type": "uint256"
        },
        {
          "internalType": "string",
          "name": "uriPrefix",
          "type": "string"
        },
        {
          "internalType": "uint256",
          "name": "price",
          "type": "uint256"
        }
      ],
      "name": "createEvent",
      "outputs": [],
      "stateMutability": "nonpayable",
      "type": "function"
    },
    {
      "inputs": [
        {
          "internalType": "uint256",
          "name": "",
          "type": "uint256"
        }
      ],
      "name": "eventsById",
      "outputs": [
        {
          "internalType": "string",
          "name": "name",
          "type": "string"
        },
        {
          "internalType": "string",
          "name": "uriPrefix",
          "type": "string"
        },
        {
          "internalType": "uint256",
          "name": "maxSupply",
          "type": "uint256"
        },
        {
          "internalType": "uint256",
          "name": "minted",
          "type": "uint256"
        },
        {
          "internalType": "bool",
          "name": "exists",
          "type": "bool"
        },
        {
          "internalType": "uint256",
          "name": "price",
          "type": "uint256"
        }
      ],
      "stateMutability": "view",
      "type": "function"
    },
    {
      "inputs": [
        {
          "internalType": "uint256",
          "name": "tokenId",
          "type": "uint256"
        }
      ],
      "name": "getApproved",
      "outputs": [
        {
          "internalType": "address",
          "name": "",
          "type": "address"
        }
      ],
      "stateMutability": "view",
      "type": "function"
    },
    {
      "inputs": [
        {
          "internalType": "uint256",
          "name": "eventId",
          "type": "uint256"
        }
      ],
      "name": "getEventInfo",
      "outputs": [
        {
          "internalType": "string",
          "name": "name",
          "type": "string"
        },
        {
          "internalType": "uint256",
          "name": "price",
          "type": "uint256"
        },
        {
          "internalType": "uint256",
          "name": "totalSupply",
          "type": "uint256"
        },
        {
          "internalType": "uint256",
          "name": "remaining",
          "type": "uint256"
        }
      ],
      "stateMutability": "view",
      "type": "function"
    },
    {
      "inputs": [
        {
          "internalType": "address",
          "name": "ownerAddr",
          "type": "address"
        }
      ],
      "name": "getOwnedTickets",
      "outputs": [
        {
          "internalType": "uint256[]",
          "name": "",
          "type": "uint256[]"
        }
      ],
      "stateMutability": "view",
      "type": "function"
    },
    {
      "inputs": [
        {
          "internalType": "address",
          "name": "owner",
          "type": "address"
        },
        {
          "internalType": "address",
          "name": "operator",
          "type": "address"
        }
      ],
      "name": "isApprovedForAll",
      "outputs": [
        {
          "internalType": "bool",
          "name": "",
          "type": "bool"
        }
      ],
      "stateMutability": "view",
      "type": "function"
    },
    {
      "inputs": [
        {
          "internalType": "uint256",
          "name": "",
          "type": "uint256"
        }
      ],
      "name": "isBurned",
      "outputs": [
        {
          "internalType": "bool",
          "name": "",
          "type": "bool"
        }
      ],
      "stateMutability": "view",
      "type": "function"
    },
    {
      "inputs": [
        {
          "internalType": "uint256",
          "name": "tokenId",
          "type": "uint256"
        }
      ],
      "name": "isValidTicket",
      "outputs": [
        {
          "internalType": "bool",
          "name": "valid",
          "type": "bool"
        },
        {
          "internalType": "uint256",
          "name": "eventId",
          "type": "uint256"
        },
        {
          "internalType": "address",
          "name": "owner",
          "type": "address"
        }
      ],
      "stateMutability": "view",
      "type": "function"
    },
    {
      "inputs": [
        {
          "internalType": "address",
          "name": "to",
          "type": "address"
        },
        {
          "internalType": "uint256",
          "name": "eventId",
          "type": "uint256"
        }
      ],
      "name": "mintTicket",
      "outputs": [
        {
          "internalType": "uint256",
          "name": "tokenId",
          "type": "uint256"
        }
      ],
      "stateMutability": "nonpayable",
      "type": "function"
    },
    {
      "inputs": [],
      "name": "name",
      "outputs": [
        {
          "internalType": "string",
          "name": "",
          "type": "string"
        }
      ],
      "stateMutability": "view",
      "type": "function"
    },
    {
      "inputs": [],
      "name": "nextTokenId",
      "outputs": [
        {
          "internalType": "uint256",
          "name": "",
          "type": "uint256"
        }
      ],
      "stateMutability": "view",
      "type": "function"
    },
    {
      "inputs": [],
      "name": "owner",
      "outputs": [
        {
          "internalType": "address",
          "name": "",
          "type": "address"
        }
      ],
      "stateMutability": "view",
      "type": "function"
    },
    {
      "inputs": [
        {
          "internalType": "uint256",
          "name": "tokenId",
          "type": "uint256"
        }
      ],
      "name": "ownerOf",
      "outputs": [
        {
          "internalType": "address",
          "name": "",
          "type": "address"
        }
      ],
      "stateMutability": "view",
      "type": "function"
    },
    {
      "inputs": [
        {
          "internalType": "uint256",
          "name": "eventId",
          "type": "uint256"
        },
        {
          "internalType": "uint256",
          "name": "quantity",
          "type": "uint256"
        }
      ],
      "name": "purchaseTicket",
      "outputs": [
        {
          "internalType": "uint256[]",
          "name": "tokenIds",
          "type": "uint256[]"
        }
      ],
      "stateMutability": "payable",
      "type": "function"
    },
    {
      "inputs": [],
      "name": "renounceOwnership",
      "outputs": [],
      "stateMutability": "nonpayable",
      "type": "function"
    },
    {
      "inputs": [
        {
          "internalType": "address",
          "name": "from",
          "type": "address"
        },
        {
          "internalType": "address",
          "name": "to",
          "type": "address"
        },
        {
          "internalType": "uint256",
          "name": "tokenId",
          "type": "uint256"
        }
      ],
      "name": "safeTransferFrom",
      "outputs": [],
      "stateMutability": "nonpayable",
      "type": "function"
    },
    {
      "inputs": [
        {
          "internalType": "address",
          "name": "from",
          "type": "address"
        },
        {
          "internalType": "address",
          "name": "to",
          "type": "address"
        },
        {
          "internalType": "uint256",
          "name": "tokenId",
          "type": "uint256"
        },
        {
          "internalType": "bytes",
          "name": "data",
          "type": "bytes"
        }
      ],
      "name": "safeTransferFrom",
      "outputs": [],
      "stateMutability": "nonpayable",
      "type": "function"
    },
    {
      "inputs": [
        {
          "internalType": "address",
          "name": "operator",
          "type": "address"
        },
        {
          "internalType": "bool",
          "name": "approved",
          "type": "bool"
        }
      ],
      "name": "setApprovalForAll",
      "outputs": [],
      "stateMutability": "nonpayable",
      "type": "function"
    },
    {
      "inputs": [
        {
          "internalType": "bytes4",
          "name": "interfaceId",
          "type": "bytes4"
        }
      ],
      "name": "supportsInterface",
      "outputs": [
        {
          "internalType": "bool",
          "name": "",
          "type": "bool"
        }
      ],
      "stateMutability": "view",
      "type": "function"
    },
    {
      "inputs": [],
      "name": "symbol",
      "outputs": [
        {
          "internalType": "string",
          "name": "",
          "type": "string"
        }
      ],
      "stateMutability": "view",
      "type": "function"
    },
    {
      "inputs": [
        {
          "internalType": "uint256",
          "name": "",
          "type": "uint256"
        }
      ],
      "name": "ticketEventOf",
      "outputs": [
        {
          "internalType": "uint256",
          "name": "",
          "type": "uint256"
        }
      ],
      "stateMutability": "view",
      "type": "function"
    },
    {
      "inputs": [
        {
          "internalType": "uint256",
          "name": "tokenId",
          "type": "uint256"
        }
      ],
      "name": "tokenURI",
      "outputs": [
        {
          "internalType": "string",
          "name": "",
          "type": "string"
        }
      ],
      "stateMutability": "view",
      "type": "function"
    },
    {
      "inputs": [
        {
          "internalType": "address",
          "name": "from",
          "type": "address"
        },
        {
          "internalType": "address",
          "name": "to",
          "type": "address"
        },
        {
          "internalType": "uint256",
          "name": "tokenId",
          "type": "uint256"
        }
      ],
      "name": "transferFrom",
      "outputs": [],
      "stateMutability": "nonpayable",
      "type": "function"
    },
    {
      "inputs": [
        {
          "internalType": "address",
          "name": "newOwner",
          "type": "address"
        }
      ],
      "name": "transferOwnership",
      "outputs": [],
      "stateMutability": "nonpayable",
      "type": "function"
    },
    {
      "inputs": [],
      "name": "withdraw",
      "outputs": [],
      "stateMutability": "nonpayable",
      "type": "function"
    }
  ],
  "bytecode": "0x60806040526001600a553480156200001657600080fd5b5060405162002a6038038062002a608339810160408190526200003991620001c9565b33838360006200004a8382620002eb565b506001620000598282620002eb565b5050506001600160a01b0381166200008b57604051631e4fbdf760e01b81526000600482015260240160405180910390fd5b6200009681620000af565b50600b620000a58282620002eb565b50505050620003b7565b600680546001600160a01b038381166001600160a01b0319831681179093556040519116919082907f8be0079c531659141344cd1fd0a4f28419497f9722a3daafe3b4186f6b6457e090600090a35050565b634e487b7160e01b600052604160045260246000fd5b600082601f8301126200012957600080fd5b81516001600160401b038082111562000146576200014662000101565b604051601f8301601f19908116603f0116810190828211818310171562000171576200017162000101565b81604052838152602092508660208588010111156200018f57600080fd5b600091505b83821015620001b3578582018301518183018401529082019062000194565b6000602085830101528094505050505092915050565b600080600060608486031215620001df57600080fd5b83516001600160401b0380821115620001f757600080fd5b620002058783880162000117565b945060208601519150808211156200021c57600080fd5b6200022a8783880162000117565b935060408601519150808211156200024157600080fd5b50620002508682870162000117565b9150509250925092565b600181811c908216806200026f57607f821691505b6020821081036200029057634e487b7160e01b600052602260045260246000fd5b50919050565b601f821115620002e6576000816000526020600020601f850160051c81016020861015620002c15750805b601f850160051c820191505b81811015620002e257828155600101620002cd565b5050505b505050565b81516001600160401b0381111562000307576200030762000101565b6200031f816200031884546200025a565b8462000296565b602080601f8311600181146200035757600084156200033e5750858301515b600019600386901b1c1916600185901b178555620002e2565b600085815260208120601f198616915b82811015620003885788860151825594840194600190910190840162000367565b5085821015620003a75787850151600019600388901b60f8161c191681555b5050505050600190811b01905550565b61269980620003c76000396000f3fe6080604052600436106101c25760003560e01c806370a08231116100f7578063ab94c86d11610095578063c87b56dd11610064578063c87b56dd14610543578063db44fe0714610563578063e985e9c514610593578063f2fde38b146105b357600080fd5b8063ab94c86d1461049d578063b88d4fde146104ca578063b8fab085146104ea578063bdbbb0cb1461053057600080fd5b80638da5cb5b116100d15780638da5cb5b1461042a57806395d89b4114610448578063a22cb4651461045d578063a5f7f4661461047d57600080fd5b806370a08231146103d1578063715018a6146103ff57806375794a3c1461041457600080fd5b806342842e0e116101645780635d39f7b91161013e5780635d39f7b91461034a5780636352211e1461036a5780636c0360eb1461038a5780636d7524ee1461039f57600080fd5b806342842e0e146102dd57806342966c68146102fd5780634527746f1461031d57600080fd5b8063095ea7b3116101a0578063095ea7b3146102565780631d645b121461027857806323b872dd146102a85780633ccfd60b146102c857600080fd5b806301ffc9a7146101c757806306fdde03146101fc578063081812fc1461021e575b600080fd5b3480156101d357600080fd5b506101e76101e2366004611f51565b6105d3565b60405190151581526020015b60405180910390f35b34801561020857600080fd5b50610211610625565b6040516101f39190611fc5565b34801561022a57600080fd5b5061023e610239366004611fd8565b6106b7565b6040516001600160a01b0390911681526020016101f3565b34801561026257600080fd5b5061027661027136600461200d565b6106e0565b005b34801561028457600080fd5b50610298610293366004611fd8565b6106ef565b6040516101f39493929190612037565b3480156102b457600080fd5b506102766102c3366004612066565b6108f1565b3480156102d457600080fd5b5061027661097c565b3480156102e957600080fd5b506102766102f8366004612066565b6109f9565b34801561030957600080fd5b50610276610318366004611fd8565b610a19565b34801561032957600080fd5b5061033d6103383660046120a2565b610b4a565b6040516101f391906120bd565b34801561035657600080fd5b5061027661036536600461214a565b610c49565b34801561037657600080fd5b5061023e610385366004611fd8565b610ded565b34801561039657600080fd5b50610211610df8565b3480156103ab57600080fd5b506103bf6103ba366004611fd8565b610e86565b6040516101f3969594939291906121d6565b3480156103dd57600080fd5b506103f16103ec3660046120a2565b610fd1565b6040519081526020016101f3565b34801561040b57600080fd5b50610276611019565b34801561042057600080fd5b506103f1600a5481565b34801561043657600080fd5b506006546001600160a01b031661023e565b34801561045457600080fd5b5061021161102d565b34801561046957600080fd5b50610276610478366004612221565b61103c565b34801561048957600080fd5b506103f161049836600461200d565b611047565b3480156104a957600080fd5b506103f16104b8366004611fd8565b60076020526000908152604090205481565b3480156104d657600080fd5b506102766104e5366004612273565b611179565b3480156104f657600080fd5b5061050a610505366004611fd8565b611191565b60408051931515845260208401929092526001600160a01b0316908201526060016101f3565b61033d61053e36600461234f565b61121b565b34801561054f57600080fd5b5061021161055e366004611fd8565b6114d6565b34801561056f57600080fd5b506101e761057e366004611fd8565b60086020526000908152604090205460ff1681565b34801561059f57600080fd5b506101e76105ae366004612371565b61173a565b3480156105bf57600080fd5b506102766105ce3660046120a2565b611768565b60006001600160e01b031982166380ac58cd60e01b148061060457506001600160e01b03198216635b5e139f60e01b145b8061061f57506301ffc9a760e01b6001600160e01b03198316145b92915050565b606060008054610634906123a4565b80601f0160208091040260200160405190810160405280929190818152602001828054610660906123a4565b80156106ad5780601f10610682576101008083540402835291602001916106ad565b820191906000526020600020905b81548152906001019060200180831161069057829003601f168201915b5050505050905090565b60006106c2826117a6565b506000828152600460205260409020546001600160a01b031661061f565b6106eb8282336117df565b5050565b6060600080600080600960008781526020019081526020016000206040518060c0016040529081600082018054610725906123a4565b80601f0160208091040260200160405190810160405280929190818152602001828054610751906123a4565b801561079e5780601f106107735761010080835404028352916020019161079e565b820191906000526020600020905b81548152906001019060200180831161078157829003601f168201915b505050505081526020016001820180546107b7906123a4565b80601f01602080910402602001604051908101604052809291908181526020018280546107e3906123a4565b80156108305780601f1061080557610100808354040283529160200191610830565b820191906000526020600020905b81548152906001019060200180831161081357829003601f168201915b50505091835250506002820154602082015260038201546040820152600482015460ff16151560608201526005909101546080918201528101519091506108a95760405162461bcd60e51b81526020600482015260086024820152671b9bc8195d995b9d60c21b60448201526064015b60405180910390fd5b600081604001516000146108d057816060015182604001516108cb91906123f4565b6108d4565b6000195b825160a08401516040909401519099939850965094509092505050565b6001600160a01b03821661091b57604051633250574960e11b8152600060048201526024016108a0565b60006109288383336117ec565b9050836001600160a01b0316816001600160a01b031614610976576040516364283d7b60e01b81526001600160a01b03808616600483015260248201849052821660448201526064016108a0565b50505050565b6109846118e5565b47806109bf5760405162461bcd60e51b815260206004820152600a6024820152696e6f2062616c616e636560b01b60448201526064016108a0565b6006546040516001600160a01b039091169082156108fc029083906000818181858888f193505050501580156106eb573d6000803e3d6000fd5b610a1483838360405180602001604052806000815250611179565b505050565b6000610a2482610ded565b9050336001600160a01b0382161480610a4d575033610a42836106b7565b6001600160a01b0316145b80610a5d5750610a5d813361173a565b610a9e5760405162461bcd60e51b81526020600482015260126024820152711b9bdd081bdddb995c8bd85c1c1c9bdd995960721b60448201526064016108a0565b60008281526008602052604090205460ff1615610aee5760405162461bcd60e51b815260206004820152600e60248201526d185b1c9958591e48189d5c9b995960921b60448201526064016108a0565b6000828152600860205260409020805460ff19166001179055610b1082611912565b6040516001600160a01b0382169083907ff9017e896fd1920ef14b66376fe34ace88734084008a337b98e41568cf377b0b90600090a35050565b600a5460609060009060015b81811015610b95576000818152600260205260409020546001600160a01b03868116911603610b8d5782610b8981612407565b9350505b600101610b56565b5060008267ffffffffffffffff811115610bb157610bb161225d565b604051908082528060200260200182016040528015610bda578160200160208202803683370190505b509050600060015b83811015610c3e576000818152600260205260409020546001600160a01b03888116911603610c3657808383610c1781612407565b945081518110610c2957610c29612420565b6020026020010181815250505b600101610be2565b509095945050505050565b610c516118e5565b60008781526009602052604090206004015460ff1615610ca25760405162461bcd60e51b815260206004820152600c60248201526b6576656e742065786973747360a01b60448201526064016108a0565b6040518060c0016040528087878080601f016020809104026020016040519081016040528093929190818152602001838380828437600092019190915250505090825250604080516020601f8701819004810282018101909252858152918101919086908690819084018382808284376000920182905250938552505050602080830188905260408084018390526001606085015260809093018590528a8252600990522081518190610d55908261247e565b5060208201516001820190610d6a908261247e565b50604082810151600283015560608301516003830155608083015160048301805460ff191691151591909117905560a0909201516005909101555187907f2f46aa03f444b4d078142c9e6c82942e92866f5b8992a3612b4a1762188c968290610ddc9089908990899089908990612567565b60405180910390a250505050505050565b600061061f826117a6565b600b8054610e05906123a4565b80601f0160208091040260200160405190810160405280929190818152602001828054610e31906123a4565b8015610e7e5780601f10610e5357610100808354040283529160200191610e7e565b820191906000526020600020905b815481529060010190602001808311610e6157829003601f168201915b505050505081565b600960205260009081526040902080548190610ea1906123a4565b80601f0160208091040260200160405190810160405280929190818152602001828054610ecd906123a4565b8015610f1a5780601f10610eef57610100808354040283529160200191610f1a565b820191906000526020600020905b815481529060010190602001808311610efd57829003601f168201915b505050505090806001018054610f2f906123a4565b80601f0160208091040260200160405190810160405280929190818152602001828054610f5b906123a4565b8015610fa85780601f10610f7d57610100808354040283529160200191610fa8565b820191906000526020600020905b815481529060010190602001808311610f8b57829003601f168201915b5050506002840154600385015460048601546005909601549495919490935060ff909116915086565b60006001600160a01b038216610ffd576040516322718ad960e21b8152600060048201526024016108a0565b506001600160a01b031660009081526003602052604090205490565b6110216118e5565b61102b600061194d565b565b606060018054610634906123a4565b6106eb33838361199f565b60006110516118e5565b6000828152600960205260409020600481015460ff166110a35760405162461bcd60e51b815260206004820152600d60248201526c6576656e74202165786973747360981b60448201526064016108a0565b6002810154156110ef5780600201548160030154106110ef5760405162461bcd60e51b81526020600482015260086024820152671cdbdb19081bdd5d60c21b60448201526064016108a0565b600a80549060006110ff83612407565b91905055915061110f8483611a3e565b6000828152600760205260408120849055600382018054600192906111359084906125a0565b90915550506040516001600160a01b03851690849084907f085ec0eff4bf526b0dd054adffcd8bd8da42126a1133ce302042973f32029fb090600090a45092915050565b6111848484846108f1565b6109763385858585611a58565b6000818152600860205260408120548190819060ff16156111c45750505060008181526007602052604081205481611214565b6000848152600260205260409020546001600160a01b0316806111fc5750505060008281526007602052604081205490915081611214565b60008581526007602052604090205460019450925090505b9193909250565b6060600082116112555760405162461bcd60e51b815260206004820152600560248201526407174793e360dc1b60448201526064016108a0565b6000838152600960205260409020600481015460ff166112a75760405162461bcd60e51b815260206004820152600d60248201526c6576656e74202165786973747360981b60448201526064016108a0565b6002810154156112ff5780600201548382600301546112c691906125a0565b11156112ff5760405162461bcd60e51b81526020600482015260086024820152671cdbdb19081bdd5d60c21b60448201526064016108a0565b600083826005015461131191906125b3565b90508034101561135a5760405162461bcd60e51b81526020600482015260146024820152731a5b9cdd59999a58da595b9d081c185e5b595b9d60621b60448201526064016108a0565b8367ffffffffffffffff8111156113735761137361225d565b60405190808252806020026020018201604052801561139c578160200160208202803683370190505b50925060005b8481101561148d57600a8054600091826113bb83612407565b9190505590506113cb3382611a3e565b6000818152600760205260408120889055600385018054600192906113f19084906125a0565b925050819055508085838151811061140b5761140b612420565b60209081029190910101526040513390889083907f085ec0eff4bf526b0dd054adffcd8bd8da42126a1133ce302042973f32029fb090600090a460408051878152602081018590528291899133917f5dc4dcd1f92964d14e2e96d2da87291ad3eb7386b55ba0da1b3457e9ab3ed027910160405180910390a4506001016113a2565b50803411156114ce57336108fc6114a483346123f4565b6040518115909202916000818181858888f193505050501580156114cc573d6000803e3d6000fd5b505b505092915050565b60606114e1826117a6565b506000828152600760209081526040808320548084526009909252808320815160c0810190925280549293928290829061151a906123a4565b80601f0160208091040260200160405190810160405280929190818152602001828054611546906123a4565b80156115935780601f1061156857610100808354040283529160200191611593565b820191906000526020600020905b81548152906001019060200180831161157657829003601f168201915b505050505081526020016001820180546115ac906123a4565b80601f01602080910402602001604051908101604052809291908181526020018280546115d8906123a4565b80156116255780601f106115fa57610100808354040283529160200191611625565b820191906000526020600020905b81548152906001019060200180831161160857829003601f168201915b5050509183525050600282015460208083019190915260038301546040830152600483015460ff1615156060830152600590920154608090910152810151519091506000906116fe57600b805461167b906123a4565b80601f01602080910402602001604051908101604052809291908181526020018280546116a7906123a4565b80156116f45780601f106116c9576101008083540402835291602001916116f4565b820191906000526020600020905b8154815290600101906020018083116116d757829003601f168201915b5050505050611704565b81602001515b90508061171086611b83565b6040516020016117219291906125ca565b6040516020818303038152906040529350505050919050565b6001600160a01b03918216600090815260056020908152604080832093909416825291909152205460ff1690565b6117706118e5565b6001600160a01b03811661179a57604051631e4fbdf760e01b8152600060048201526024016108a0565b6117a38161194d565b50565b6000818152600260205260408120546001600160a01b03168061061f57604051637e27328960e01b8152600481018490526024016108a0565b610a148383836001611c16565b6000828152600260205260408120546001600160a01b039081169083161561181957611819818486611d1c565b6001600160a01b0381161561185757611836600085600080611c16565b6001600160a01b038116600090815260036020526040902080546000190190555b6001600160a01b03851615611886576001600160a01b0385166000908152600360205260409020805460010190555b60008481526002602052604080822080546001600160a01b0319166001600160a01b0389811691821790925591518793918516917fddf252ad1be2c89b69c2b068fc378daa952ba7f163c4a11628f55a4df523b3ef91a4949350505050565b6006546001600160a01b0316331461102b5760405163118cdaa760e01b81523360048201526024016108a0565b600061192160008360006117ec565b90506001600160a01b0381166106eb57604051637e27328960e01b8152600481018390526024016108a0565b600680546001600160a01b038381166001600160a01b0319831681179093556040519116919082907f8be0079c531659141344cd1fd0a4f28419497f9722a3daafe3b4186f6b6457e090600090a35050565b6001600160a01b0382166119d157604051630b61174360e31b81526001600160a01b03831660048201526024016108a0565b6001600160a01b03838116600081815260056020908152604080832094871680845294825291829020805460ff191686151590811790915591519182527f17307eab39ab6107e8899845ad3d59bd9653f200f220920489ca2b5937696c31910160405180910390a3505050565b6106eb828260405180602001604052806000815250611d80565b6001600160a01b0383163b15611b7c57604051630a85bd0160e11b81526001600160a01b0384169063150b7a0290611a9a908890889087908790600401612609565b6020604051808303816000875af1925050508015611ad5575060408051601f3d908101601f19168201909252611ad291810190612646565b60015b611b3e573d808015611b03576040519150601f19603f3d011682016040523d82523d6000602084013e611b08565b606091505b508051600003611b3657604051633250574960e11b81526001600160a01b03851660048201526024016108a0565b805160208201fd5b6001600160e01b03198116630a85bd0160e11b14611b7a57604051633250574960e11b81526001600160a01b03851660048201526024016108a0565b505b5050505050565b60606000611b9083611d98565b600101905060008167ffffffffffffffff811115611bb057611bb061225d565b6040519080825280601f01601f191660200182016040528015611bda576020820181803683370190505b5090508181016020015b600019016f181899199a1a9b1b9c1cb0b131b232b360811b600a86061a8153600a8504945084611be457509392505050565b8080611c2a57506001600160a01b03821615155b15611cec576000611c3a846117a6565b90506001600160a01b03831615801590611c665750826001600160a01b0316816001600160a01b031614155b8015611c795750611c77818461173a565b155b15611ca25760405163a9fbf51f60e01b81526001600160a01b03841660048201526024016108a0565b8115611cea5783856001600160a01b0316826001600160a01b03167f8c5be1e5ebec7d5bd14f71427d1e84f3dd0314c0f7b2291e5b200ac8c7c3b92560405160405180910390a45b505b5050600090815260046020526040902080546001600160a01b0319166001600160a01b0392909216919091179055565b611d27838383611e70565b610a14576001600160a01b038316611d5557604051637e27328960e01b8152600481018290526024016108a0565b60405163177e802f60e01b81526001600160a01b0383166004820152602481018290526044016108a0565b611d8a8383611ed6565b610a14336000858585611a58565b60008072184f03e93ff9f4daa797ed6e38ed64bf6a1f0160401b8310611dd75772184f03e93ff9f4daa797ed6e38ed64bf6a1f0160401b830492506040015b6d04ee2d6d415b85acef81000000008310611e03576d04ee2d6d415b85acef8100000000830492506020015b662386f26fc100008310611e2157662386f26fc10000830492506010015b6305f5e1008310611e39576305f5e100830492506008015b6127108310611e4d57612710830492506004015b60648310611e5f576064830492506002015b600a831061061f5760010192915050565b60006001600160a01b03831615801590611ece5750826001600160a01b0316846001600160a01b03161480611eaa5750611eaa848461173a565b80611ece57506000828152600460205260409020546001600160a01b038481169116145b949350505050565b6001600160a01b038216611f0057604051633250574960e11b8152600060048201526024016108a0565b6000611f0e838360006117ec565b90506001600160a01b03811615610a14576040516339e3563760e11b8152600060048201526024016108a0565b6001600160e01b0319811681146117a357600080fd5b600060208284031215611f6357600080fd5b8135611f6e81611f3b565b9392505050565b60005b83811015611f90578181015183820152602001611f78565b50506000910152565b60008151808452611fb1816020860160208601611f75565b601f01601f19169290920160200192915050565b602081526000611f6e6020830184611f99565b600060208284031215611fea57600080fd5b5035919050565b80356001600160a01b038116811461200857600080fd5b919050565b6000806040838503121561202057600080fd5b61202983611ff1565b946020939093013593505050565b60808152600061204a6080830187611f99565b6020830195909552506040810192909252606090910152919050565b60008060006060848603121561207b57600080fd5b61208484611ff1565b925061209260208501611ff1565b9150604084013590509250925092565b6000602082840312156120b457600080fd5b611f6e82611ff1565b6020808252825182820181905260009190848201906040850190845b818110156120f5578351835292840192918401916001016120d9565b50909695505050505050565b60008083601f84011261211357600080fd5b50813567ffffffffffffffff81111561212b57600080fd5b60208301915083602082850101111561214357600080fd5b9250929050565b600080600080600080600060a0888a03121561216557600080fd5b87359650602088013567ffffffffffffffff8082111561218457600080fd5b6121908b838c01612101565b909850965060408a0135955060608a01359150808211156121b057600080fd5b506121bd8a828b01612101565b989b979a50959894979596608090950135949350505050565b60c0815260006121e960c0830189611f99565b82810360208401526121fb8189611f99565b604084019790975250506060810193909352901515608083015260a09091015292915050565b6000806040838503121561223457600080fd5b61223d83611ff1565b91506020830135801515811461225257600080fd5b809150509250929050565b634e487b7160e01b600052604160045260246000fd5b6000806000806080858703121561228957600080fd5b61229285611ff1565b93506122a060208601611ff1565b925060408501359150606085013567ffffffffffffffff808211156122c457600080fd5b818701915087601f8301126122d857600080fd5b8135818111156122ea576122ea61225d565b604051601f8201601f19908116603f011681019083821181831017156123125761231261225d565b816040528281528a602084870101111561232b57600080fd5b82602086016020830137600060208483010152809550505050505092959194509250565b6000806040838503121561236257600080fd5b50508035926020909101359150565b6000806040838503121561238457600080fd5b61238d83611ff1565b915061239b60208401611ff1565b90509250929050565b600181811c908216806123b857607f821691505b6020821081036123d857634e487b7160e01b600052602260045260246000fd5b50919050565b634e487b7160e01b600052601160045260246000fd5b8181038181111561061f5761061f6123de565b600060018201612419576124196123de565b5060010190565b634e487b7160e01b600052603260045260246000fd5b601f821115610a14576000816000526020600020601f850160051c8101602086101561245f5750805b601f850160051c820191505b81811015611b7a5782815560010161246b565b815167ffffffffffffffff8111156124985761249861225d565b6124ac816124a684546123a4565b84612436565b602080601f8311600181146124e157600084156124c95750858301515b600019600386901b1c1916600185901b178555611b7a565b600085815260208120601f198616915b82811015612510578886015182559484019460019091019084016124f1565b508582101561252e5787850151600019600388901b60f8161c191681555b5050505050600190811b01905550565b81835281816020850137506000828201602090810191909152601f909101601f19169091010190565b60608152600061257b60608301878961253e565b856020840152828103604084015261259481858761253e565b98975050505050505050565b8082018082111561061f5761061f6123de565b808202811582820484141761061f5761061f6123de565b600083516125dc818460208801611f75565b8351908301906125f0818360208801611f75565b64173539b7b760d91b9101908152600501949350505050565b6001600160a01b038581168252841660208201526040810183905260806060820181905260009061263c90830184611f99565b9695505050505050565b60006020828403121561265857600080fd5b8151611f6e81611f3b56fea26469706673582212200f406b409dba9f72746a64a2318a0e9dbc67266e050c6c9cfdfb87e2ed0540c664736f6c63430008180033",
  "linkReferences": {},
  "deployedLinkReferences": {}
}