{
  "_format": "hh-sol-artifact-1",
  "contractName": "TicketContract",
  "sourceName": "contracts/TicketContract.sol",
  "abi": [
    {
      "inputs": [
        {
          "internalType": "string",
          "name": "_name",
          "type": "string"
        },
        {
          "internalType": "string",
          "name": "_symbol",
          "type": "string"
        }
      ],
      "stateMutability": "nonpayable",
      "type": "constructor"
    },
    {
      "inputs": [
        {
          "internalType": "address",
          "name": "sender",
          "type": "address"
        },
        {
          "internalType": "uint256",
          "name": "tokenId",
          "type": "uint256"
        },
        {
          "internalType": "address",
          "name": "owner",
          "type": "address"
        }
      ],
      "name": "ERC721IncorrectOwner",
      "type": "error"
    },
    {
      "inputs": [
        {
          "internalType": "address",
          "name": "operator",
          "type": "address"
        },
        {
          "internalType": "uint256",
          "name": "tokenId",
          "type": "uint256"
        }
      ],
      "name": "ERC721InsufficientApproval",
      "type": "error"
    },
    {
      "inputs": [
        {
          "internalType": "address",
          "name": "approver",
          "type": "address"
        }
      ],
      "name": "ERC721InvalidApprover",
      "type": "error"
    },
    {
      "inputs": [
        {
          "internalType": "address",
          "name": "operator",
          "type": "address"
        }
      ],
      "name": "ERC721InvalidOperator",
      "type": "error"
    },
    {
      "inputs": [
        {
          "internalType": "address",
          "name": "owner",
          "type": "address"
        }
      ],
      "name": "ERC721InvalidOwner",
      "type": "error"
    },
    {
      "inputs": [
        {
          "internalType": "address",
          "name": "receiver",
          "type": "address"
        }
      ],
      "name": "ERC721InvalidReceiver",
      "type": "error"
    },
    {
      "inputs": [
        {
          "internalType": "address",
          "name": "sender",
          "type": "address"
        }
      ],
      "name": "ERC721InvalidSender",
      "type": "error"
    },
    {
      "inputs": [
        {
          "internalType": "uint256",
          "name": "tokenId",
          "type": "uint256"
        }
      ],
      "name": "ERC721NonexistentToken",
      "type": "error"
    },
    {
      "inputs": [],
      "name": "ReentrancyGuardReentrantCall",
      "type": "error"
    },
    {
      "anonymous": false,
      "inputs": [
        {
          "indexed": true,
          "internalType": "address",
          "name": "owner",
          "type": "address"
        },
        {
          "indexed": true,
          "internalType": "address",
          "name": "approved",
          "type": "address"
        },
        {
          "indexed": true,
          "internalType": "uint256",
          "name": "tokenId",
          "type": "uint256"
        }
      ],
      "name": "Approval",
      "type": "event"
    },
    {
      "anonymous": false,
      "inputs": [
        {
          "indexed": true,
          "internalType": "address",
          "name": "owner",
          "type": "address"
        },
        {
          "indexed": true,
          "internalType": "address",
          "name": "operator",
          "type": "address"
        },
        {
          "indexed": false,
          "internalType": "bool",
          "name": "approved",
          "type": "bool"
        }
      ],
      "name": "ApprovalForAll",
      "type": "event"
    },
    {
      "anonymous": false,
      "inputs": [
        {
          "indexed": false,
          "internalType": "uint256",
          "name": "platformFee",
          "type": "uint256"
        },
        {
          "indexed": false,
          "internalType": "uint256",
          "name": "organizerRoyalty",
          "type": "uint256"
        }
      ],
      "name": "FeeRatesUpdated",
      "type": "event"
    },
    {
      "anonymous": false,
      "inputs": [
        {
          "indexed": true,
          "internalType": "uint256",
          "name": "occasionId",
          "type": "uint256"
        },
        {
          "indexed": false,
          "internalType": "string",
          "name": "name",
          "type": "string"
        },
        {
          "indexed": false,
          "internalType": "address",
          "name": "organizer",
          "type": "address"
        },
        {
          "indexed": false,
          "internalType": "bool",
          "name": "resellable",
          "type": "bool"
        },
        {
          "indexed": false,
          "internalType": "bool",
          "name": "poapEnabled",
          "type": "bool"
        }
      ],
      "name": "OccasionCreated",
      "type": "event"
    },
    {
      "anonymous": false,
      "inputs": [
        {
          "indexed": true,
          "internalType": "uint256",
          "name": "occasionId",
          "type": "uint256"
        },
        {
          "indexed": true,
          "internalType": "address",
          "name": "user",
          "type": "address"
        },
        {
          "indexed": false,
          "internalType": "uint256",
          "name": "poapTokenId",
          "type": "uint256"
        }
      ],
      "name": "POAPClaimed",
      "type": "event"
    },
    {
      "anonymous": false,
      "inputs": [
        {
          "indexed": true,
          "internalType": "address",
          "name": "newPoapContract",
          "type": "address"
        }
      ],
      "name": "POAPContractUpdated",
      "type": "event"
    },
    {
      "anonymous": false,
      "inputs": [
        {
          "indexed": true,
          "internalType": "uint256",
          "name": "tokenId",
          "type": "uint256"
        },
        {
          "indexed": true,
          "internalType": "uint256",
          "name": "occasionId",
          "type": "uint256"
        },
        {
          "indexed": true,
          "internalType": "address",
          "name": "holder",
          "type": "address"
        },
        {
          "indexed": false,
          "internalType": "uint256",
          "name": "checkInTime",
          "type": "uint256"
        }
      ],
      "name": "TicketCheckedIn",
      "type": "event"
    },
    {
      "anonymous": false,
      "inputs": [
        {
          "indexed": true,
          "internalType": "uint256",
          "name": "tokenId",
          "type": "uint256"
        }
      ],
      "name": "TicketDelisted",
      "type": "event"
    },
    {
      "anonymous": false,
      "inputs": [
        {
          "indexed": true,
          "internalType": "uint256",
          "name": "tokenId",
          "type": "uint256"
        },
        {
          "indexed": false,
          "internalType": "uint256",
          "name": "price",
          "type": "uint256"
        },
        {
          "indexed": false,
          "internalType": "address",
          "name": "seller",
          "type": "address"
        }
      ],
      "name": "TicketListed",
      "type": "event"
    },
    {
      "anonymous": false,
      "inputs": [
        {
          "indexed": true,
          "internalType": "uint256",
          "name": "tokenId",
          "type": "uint256"
        },
        {
          "indexed": true,
          "internalType": "uint256",
          "name": "occasionId",
          "type": "uint256"
        },
        {
          "indexed": false,
          "internalType": "uint256",
          "name": "seat",
          "type": "uint256"
        },
        {
          "indexed": false,
          "internalType": "address",
          "name": "buyer",
          "type": "address"
        }
      ],
      "name": "TicketMinted",
      "type": "event"
    },
    {
      "anonymous": false,
      "inputs": [
        {
          "indexed": true,
          "internalType": "uint256",
          "name": "tokenId",
          "type": "uint256"
        },
        {
          "indexed": false,
          "internalType": "address",
          "name": "from",
          "type": "address"
        },
        {
          "indexed": false,
          "internalType": "address",
          "name": "to",
          "type": "address"
        },
        {
          "indexed": false,
          "internalType": "uint256",
          "name": "price",
          "type": "uint256"
        }
      ],
      "name": "TicketSold",
      "type": "event"
    },
    {
      "anonymous": false,
      "inputs": [
        {
          "indexed": true,
          "internalType": "address",
          "name": "from",
          "type": "address"
        },
        {
          "indexed": true,
          "internalType": "address",
          "name": "to",
          "type": "address"
        },
        {
          "indexed": true,
          "internalType": "uint256",
          "name": "tokenId",
          "type": "uint256"
        }
      ],
      "name": "Transfer",
      "type": "event"
    },
    {
      "inputs": [
        {
          "internalType": "address",
          "name": "to",
          "type": "address"
        },
        {
          "internalType": "uint256",
          "name": "tokenId",
          "type": "uint256"
        }
      ],
      "name": "approve",
      "outputs": [],
      "stateMutability": "nonpayable",
      "type": "function"
    },
    {
      "inputs": [
        {
          "internalType": "address",
          "name": "owner",
          "type": "address"
        }
      ],
      "name": "balanceOf",
      "outputs": [
        {
          "internalType": "uint256",
          "name": "",
          "type": "uint256"
        }
      ],
      "stateMutability": "view",
      "type": "function"
    },
    {
      "inputs": [
        {
          "internalType": "uint256",
          "name": "_tokenId",
          "type": "uint256"
        }
      ],
      "name": "buyTicket",
      "outputs": [],
      "stateMutability": "payable",
      "type": "function"
    },
    {
      "inputs": [
        {
          "internalType": "uint256",
          "name": "_occasionId",
          "type": "uint256"
        },
        {
          "internalType": "address",
          "name": "_user",
          "type": "address"
        }
      ],
      "name": "canClaimPOAP",
      "outputs": [
        {
          "internalType": "bool",
          "name": "",
          "type": "bool"
        }
      ],
      "stateMutability": "view",
      "type": "function"
    },
    {
      "inputs": [
        {
          "internalType": "uint256",
          "name": "_tokenId",
          "type": "uint256"
        }
      ],
      "name": "checkIn",
      "outputs": [],
      "stateMutability": "nonpayable",
      "type": "function"
    },
    {
      "inputs": [
        {
          "internalType": "uint256",
          "name": "_occasionId",
          "type": "uint256"
        }
      ],
      "name": "claimPOAP",
      "outputs": [],
      "stateMutability": "nonpayable",
      "type": "function"
    },
    {
      "inputs": [
        {
          "internalType": "uint256",
          "name": "_tokenId",
          "type": "uint256"
        }
      ],
      "name": "delistTicket",
      "outputs": [],
      "stateMutability": "nonpayable",
      "type": "function"
    },
    {
      "inputs": [
        {
          "internalType": "uint256",
          "name": "tokenId",
          "type": "uint256"
        }
      ],
      "name": "getApproved",
      "outputs": [
        {
          "internalType": "address",
          "name": "",
          "type": "address"
        }
      ],
      "stateMutability": "view",
      "type": "function"
    },
    {
      "inputs": [
        {
          "internalType": "uint256",
          "name": "_tokenId",
          "type": "uint256"
        }
      ],
      "name": "getListing",
      "outputs": [
        {
          "components": [
            {
              "internalType": "uint256",
              "name": "price",
              "type": "uint256"
            },
            {
              "internalType": "address",
              "name": "seller",
              "type": "address"
            },
            {
              "internalType": "bool",
              "name": "isActive",
              "type": "bool"
            }
          ],
          "internalType": "struct TicketContract.Listing",
          "name": "",
          "type": "tuple"
        }
      ],
      "stateMutability": "view",
      "type": "function"
    },
    {
      "inputs": [
        {
          "internalType": "uint256",
          "name": "_id",
          "type": "uint256"
        }
      ],
      "name": "getOccasion",
      "outputs": [
        {
          "components": [
            {
              "internalType": "uint256",
              "name": "id",
              "type": "uint256"
            },
            {
              "internalType": "string",
              "name": "name",
              "type": "string"
            },
            {
              "internalType": "uint256",
              "name": "cost",
              "type": "uint256"
            },
            {
              "internalType": "uint256",
              "name": "tickets",
              "type": "uint256"
            },
            {
              "internalType": "uint256",
              "name": "maxTickets",
              "type": "uint256"
            },
            {
              "internalType": "string",
              "name": "date",
              "type": "string"
            },
            {
              "internalType": "string",
              "name": "time",
              "type": "string"
            },
            {
              "internalType": "string",
              "name": "location",
              "type": "string"
            },
            {
              "internalType": "address",
              "name": "organizer",
              "type": "address"
            },
            {
              "internalType": "bool",
              "name": "resellable",
              "type": "bool"
            },
            {
              "internalType": "uint256",
              "name": "eventEndTime",
              "type": "uint256"
            },
            {
              "internalType": "uint256",
              "name": "publicSaleStart",
              "type": "uint256"
            },
            {
              "internalType": "bool",
              "name": "poapEnabled",
              "type": "bool"
            }
          ],
          "internalType": "struct TicketContract.Occasion",
          "name": "",
          "type": "tuple"
        }
      ],
      "stateMutability": "view",
      "type": "function"
    },
    {
      "inputs": [
        {
          "internalType": "uint256",
          "name": "_occasionId",
          "type": "uint256"
        }
      ],
      "name": "getPrioritySeats",
      "outputs": [
        {
          "internalType": "uint256[]",
          "name": "",
          "type": "uint256[]"
        }
      ],
      "stateMutability": "view",
      "type": "function"
    },
    {
      "inputs": [
        {
          "internalType": "uint256",
          "name": "_id",
          "type": "uint256"
        }
      ],
      "name": "getSeatsTaken",
      "outputs": [
        {
          "internalType": "uint256[]",
          "name": "",
          "type": "uint256[]"
        }
      ],
      "stateMutability": "view",
      "type": "function"
    },
    {
      "inputs": [
        {
          "internalType": "uint256",
          "name": "_tokenId",
          "type": "uint256"
        }
      ],
      "name": "getTicketInfo",
      "outputs": [
        {
          "internalType": "uint256",
          "name": "occasionId",
          "type": "uint256"
        },
        {
          "internalType": "uint256",
          "name": "seat",
          "type": "uint256"
        }
      ],
      "stateMutability": "view",
      "type": "function"
    },
    {
      "inputs": [
        {
          "internalType": "address",
          "name": "_user",
          "type": "address"
        }
      ],
      "name": "getUserPOAPBalance",
      "outputs": [
        {
          "internalType": "uint256",
          "name": "",
          "type": "uint256"
        }
      ],
      "stateMutability": "view",
      "type": "function"
    },
    {
      "inputs": [
        {
          "internalType": "uint256",
          "name": "_occasionId",
          "type": "uint256"
        },
        {
          "internalType": "address",
          "name": "_user",
          "type": "address"
        }
      ],
      "name": "getUserTicketsCheckInStatus",
      "outputs": [
        {
          "internalType": "uint256[]",
          "name": "tokenIds",
          "type": "uint256[]"
        },
        {
          "internalType": "bool[]",
          "name": "checkedIn",
          "type": "bool[]"
        }
      ],
      "stateMutability": "view",
      "type": "function"
    },
    {
      "inputs": [
        {
          "internalType": "uint256",
          "name": "",
          "type": "uint256"
        },
        {
          "internalType": "address",
          "name": "",
          "type": "address"
        }
      ],
      "name": "hasBought",
      "outputs": [
        {
          "internalType": "bool",
          "name": "",
          "type": "bool"
        }
      ],
      "stateMutability": "view",
      "type": "function"
    },
    {
      "inputs": [
        {
          "internalType": "uint256",
          "name": "",
          "type": "uint256"
        }
      ],
      "name": "hasCheckedIn",
      "outputs": [
        {
          "internalType": "bool",
          "name": "",
          "type": "bool"
        }
      ],
      "stateMutability": "view",
      "type": "function"
    },
    {
      "inputs": [
        {
          "internalType": "uint256",
          "name": "",
          "type": "uint256"
        },
        {
          "internalType": "address",
          "name": "",
          "type": "address"
        }
      ],
      "name": "hasClaimed",
      "outputs": [
        {
          "internalType": "bool",
          "name": "",
          "type": "bool"
        }
      ],
      "stateMutability": "view",
      "type": "function"
    },
    {
      "inputs": [
        {
          "internalType": "address",
          "name": "owner",
          "type": "address"
        },
        {
          "internalType": "address",
          "name": "operator",
          "type": "address"
        }
      ],
      "name": "isApprovedForAll",
      "outputs": [
        {
          "internalType": "bool",
          "name": "",
          "type": "bool"
        }
      ],
      "stateMutability": "view",
      "type": "function"
    },
    {
      "inputs": [
        {
          "internalType": "uint256",
          "name": "_tokenId",
          "type": "uint256"
        }
      ],
      "name": "isCheckedIn",
      "outputs": [
        {
          "internalType": "bool",
          "name": "",
          "type": "bool"
        }
      ],
      "stateMutability": "view",
      "type": "function"
    },
    {
      "inputs": [
        {
          "internalType": "uint256",
          "name": "_occasionId",
          "type": "uint256"
        },
        {
          "internalType": "uint256",
          "name": "_seat",
          "type": "uint256"
        }
      ],
      "name": "isPrioritySeat",
      "outputs": [
        {
          "internalType": "bool",
          "name": "",
          "type": "bool"
        }
      ],
      "stateMutability": "view",
      "type": "function"
    },
    {
      "inputs": [
        {
          "internalType": "string",
          "name": "_name",
          "type": "string"
        },
        {
          "internalType": "uint256",
          "name": "_cost",
          "type": "uint256"
        },
        {
          "internalType": "uint256",
          "name": "_maxTickets",
          "type": "uint256"
        },
        {
          "internalType": "string",
          "name": "_date",
          "type": "string"
        },
        {
          "internalType": "string",
          "name": "_time",
          "type": "string"
        },
        {
          "internalType": "string",
          "name": "_location",
          "type": "string"
        },
        {
          "internalType": "bool",
          "name": "_resellable",
          "type": "bool"
        },
        {
          "internalType": "uint256",
          "name": "_eventEndTime",
          "type": "uint256"
        },
        {
          "internalType": "uint256",
          "name": "_publicSaleStart",
          "type": "uint256"
        },
        {
          "internalType": "bool",
          "name": "_poapEnabled",
          "type": "bool"
        }
      ],
      "name": "list",
      "outputs": [],
      "stateMutability": "nonpayable",
      "type": "function"
    },
    {
      "inputs": [
        {
          "internalType": "uint256",
          "name": "_tokenId",
          "type": "uint256"
        },
        {
          "internalType": "uint256",
          "name": "_price",
          "type": "uint256"
        }
      ],
      "name": "listTicket",
      "outputs": [],
      "stateMutability": "nonpayable",
      "type": "function"
    },
    {
      "inputs": [
        {
          "internalType": "uint256",
          "name": "",
          "type": "uint256"
        }
      ],
      "name": "listings",
      "outputs": [
        {
          "internalType": "uint256",
          "name": "price",
          "type": "uint256"
        },
        {
          "internalType": "address",
          "name": "seller",
          "type": "address"
        },
        {
          "internalType": "bool",
          "name": "isActive",
          "type": "bool"
        }
      ],
      "stateMutability": "view",
      "type": "function"
    },
    {
      "inputs": [
        {
          "internalType": "uint256",
          "name": "_id",
          "type": "uint256"
        },
        {
          "internalType": "uint256",
          "name": "_seat",
          "type": "uint256"
        }
      ],
      "name": "mint",
      "outputs": [],
      "stateMutability": "payable",
      "type": "function"
    },
    {
      "inputs": [],
      "name": "name",
      "outputs": [
        {
          "internalType": "string",
          "name": "",
          "type": "string"
        }
      ],
      "stateMutability": "view",
      "type": "function"
    },
    {
      "inputs": [
        {
          "internalType": "uint256",
          "name": "",
          "type": "uint256"
        }
      ],
      "name": "occasions",
      "outputs": [
        {
          "internalType": "uint256",
          "name": "id",
          "type": "uint256"
        },
        {
          "internalType": "string",
          "name": "name",
          "type": "string"
        },
        {
          "internalType": "uint256",
          "name": "cost",
          "type": "uint256"
        },
        {
          "internalType": "uint256",
          "name": "tickets",
          "type": "uint256"
        },
        {
          "internalType": "uint256",
          "name": "maxTickets",
          "type": "uint256"
        },
        {
          "internalType": "string",
          "name": "date",
          "type": "string"
        },
        {
          "internalType": "string",
          "name": "time",
          "type": "string"
        },
        {
          "internalType": "string",
          "name": "location",
          "type": "string"
        },
        {
          "internalType": "address",
          "name": "organizer",
          "type": "address"
        },
        {
          "internalType": "bool",
          "name": "resellable",
          "type": "bool"
        },
        {
          "internalType": "uint256",
          "name": "eventEndTime",
          "type": "uint256"
        },
        {
          "internalType": "uint256",
          "name": "publicSaleStart",
          "type": "uint256"
        },
        {
          "internalType": "bool",
          "name": "poapEnabled",
          "type": "bool"
        }
      ],
      "stateMutability": "view",
      "type": "function"
    },
    {
      "inputs": [],
      "name": "organizerRoyaltyRate",
      "outputs": [
        {
          "internalType": "uint256",
          "name": "",
          "type": "uint256"
        }
      ],
      "stateMutability": "view",
      "type": "function"
    },
    {
      "inputs": [],
      "name": "owner",
      "outputs": [
        {
          "internalType": "address",
          "name": "",
          "type": "address"
        }
      ],
      "stateMutability": "view",
      "type": "function"
    },
    {
      "inputs": [
        {
          "internalType": "uint256",
          "name": "tokenId",
          "type": "uint256"
        }
      ],
      "name": "ownerOf",
      "outputs": [
        {
          "internalType": "address",
          "name": "",
          "type": "address"
        }
      ],
      "stateMutability": "view",
      "type": "function"
    },
    {
      "inputs": [],
      "name": "platformFeeRate",
      "outputs": [
        {
          "internalType": "uint256",
          "name": "",
          "type": "uint256"
        }
      ],
      "stateMutability": "view",
      "type": "function"
    },
    {
      "inputs": [],
      "name": "poapContract",
      "outputs": [
        {
          "internalType": "address",
          "name": "",
          "type": "address"
        }
      ],
      "stateMutability": "view",
      "type": "function"
    },
    {
      "inputs": [
        {
          "internalType": "uint256",
          "name": "",
          "type": "uint256"
        },
        {
          "internalType": "uint256",
          "name": "",
          "type": "uint256"
        }
      ],
      "name": "prioritySeats",
      "outputs": [
        {
          "internalType": "uint256",
          "name": "",
          "type": "uint256"
        }
      ],
      "stateMutability": "view",
      "type": "function"
    },
    {
      "inputs": [
        {
          "internalType": "address",
          "name": "from",
          "type": "address"
        },
        {
          "internalType": "address",
          "name": "to",
          "type": "address"
        },
        {
          "internalType": "uint256",
          "name": "tokenId",
          "type": "uint256"
        }
      ],
      "name": "safeTransferFrom",
      "outputs": [],
      "stateMutability": "nonpayable",
      "type": "function"
    },
    {
      "inputs": [
        {
          "internalType": "address",
          "name": "from",
          "type": "address"
        },
        {
          "internalType": "address",
          "name": "to",
          "type": "address"
        },
        {
          "internalType": "uint256",
          "name": "tokenId",
          "type": "uint256"
        },
        {
          "internalType": "bytes",
          "name": "data",
          "type": "bytes"
        }
      ],
      "name": "safeTransferFrom",
      "outputs": [],
      "stateMutability": "nonpayable",
      "type": "function"
    },
    {
      "inputs": [
        {
          "internalType": "uint256",
          "name": "",
          "type": "uint256"
        },
        {
          "internalType": "uint256",
          "name": "",
          "type": "uint256"
        }
      ],
      "name": "seatTaken",
      "outputs": [
        {
          "internalType": "address",
          "name": "",
          "type": "address"
        }
      ],
      "stateMutability": "view",
      "type": "function"
    },
    {
      "inputs": [
        {
          "internalType": "address",
          "name": "operator",
          "type": "address"
        },
        {
          "internalType": "bool",
          "name": "approved",
          "type": "bool"
        }
      ],
      "name": "setApprovalForAll",
      "outputs": [],
      "stateMutability": "nonpayable",
      "type": "function"
    },
    {
      "inputs": [
        {
          "internalType": "address",
          "name": "_poapContract",
          "type": "address"
        }
      ],
      "name": "setPOAPContract",
      "outputs": [],
      "stateMutability": "nonpayable",
      "type": "function"
    },
    {
      "inputs": [
        {
          "internalType": "uint256",
          "name": "_occasionId",
          "type": "uint256"
        },
        {
          "internalType": "uint256[]",
          "name": "_prioritySeats",
          "type": "uint256[]"
        }
      ],
      "name": "setPrioritySeats",
      "outputs": [],
      "stateMutability": "nonpayable",
      "type": "function"
    },
    {
      "inputs": [
        {
          "internalType": "bytes4",
          "name": "interfaceId",
          "type": "bytes4"
        }
      ],
      "name": "supportsInterface",
      "outputs": [
        {
          "internalType": "bool",
          "name": "",
          "type": "bool"
        }
      ],
      "stateMutability": "view",
      "type": "function"
    },
    {
      "inputs": [],
      "name": "symbol",
      "outputs": [
        {
          "internalType": "string",
          "name": "",
          "type": "string"
        }
      ],
      "stateMutability": "view",
      "type": "function"
    },
    {
      "inputs": [
        {
          "internalType": "uint256",
          "name": "",
          "type": "uint256"
        }
      ],
      "name": "tokenToOccasion",
      "outputs": [
        {
          "internalType": "uint256",
          "name": "",
          "type": "uint256"
        }
      ],
      "stateMutability": "view",
      "type": "function"
    },
    {
      "inputs": [
        {
          "internalType": "uint256",
          "name": "",
          "type": "uint256"
        }
      ],
      "name": "tokenToSeat",
      "outputs": [
        {
          "internalType": "uint256",
          "name": "",
          "type": "uint256"
        }
      ],
      "stateMutability": "view",
      "type": "function"
    },
    {
      "inputs": [
        {
          "internalType": "uint256",
          "name": "tokenId",
          "type": "uint256"
        }
      ],
      "name": "tokenURI",
      "outputs": [
        {
          "internalType": "string",
          "name": "",
          "type": "string"
        }
      ],
      "stateMutability": "view",
      "type": "function"
    },
    {
      "inputs": [],
      "name": "totalOccasions",
      "outputs": [
        {
          "internalType": "uint256",
          "name": "",
          "type": "uint256"
        }
      ],
      "stateMutability": "view",
      "type": "function"
    },
    {
      "inputs": [],
      "name": "totalSupply",
      "outputs": [
        {
          "internalType": "uint256",
          "name": "",
          "type": "uint256"
        }
      ],
      "stateMutability": "view",
      "type": "function"
    },
    {
      "inputs": [
        {
          "internalType": "address",
          "name": "from",
          "type": "address"
        },
        {
          "internalType": "address",
          "name": "to",
          "type": "address"
        },
        {
          "internalType": "uint256",
          "name": "tokenId",
          "type": "uint256"
        }
      ],
      "name": "transferFrom",
      "outputs": [],
      "stateMutability": "nonpayable",
      "type": "function"
    },
    {
      "inputs": [
        {
          "internalType": "uint256",
          "name": "_platformFeeRate",
          "type": "uint256"
        },
        {
          "internalType": "uint256",
          "name": "_organizerRoyaltyRate",
          "type": "uint256"
        }
      ],
      "name": "updateFeeRates",
      "outputs": [],
      "stateMutability": "nonpayable",
      "type": "function"
    },
    {
      "inputs": [],
      "name": "withdraw",
      "outputs": [],
      "stateMutability": "nonpayable",
      "type": "function"
    }
  ],
  "bytecode": "0x608060405260fa600a556101f4600b553480156200001c57600080fd5b50604051620052ea380380620052ea8339810160408190526200003f9162000148565b818160006200004f838262000243565b5060016200005e828262000243565b505060016006555050600780546001600160a01b03191633179055506200030f565b634e487b7160e01b600052604160045260246000fd5b600082601f830112620000a857600080fd5b81516001600160401b0380821115620000c557620000c562000080565b604051601f8301601f19908116603f01168101908282118183101715620000f057620000f062000080565b81604052838152602092508660208588010111156200010e57600080fd5b600091505b8382101562000132578582018301518183018401529082019062000113565b6000602085830101528094505050505092915050565b600080604083850312156200015c57600080fd5b82516001600160401b03808211156200017457600080fd5b620001828683870162000096565b935060208501519150808211156200019957600080fd5b50620001a88582860162000096565b9150509250929050565b600181811c90821680620001c757607f821691505b602082108103620001e857634e487b7160e01b600052602260045260246000fd5b50919050565b601f8211156200023e576000816000526020600020601f850160051c81016020861015620002195750805b601f850160051c820191505b818110156200023a5782815560010162000225565b5050505b505050565b81516001600160401b038111156200025f576200025f62000080565b6200027781620002708454620001b2565b84620001ee565b602080601f831160018114620002af5760008415620002965750858301515b600019600386901b1c1916600185901b1785556200023a565b600085815260208120601f198616915b82811015620002e057888601518255948401946001909101908401620002bf565b5085821015620002ff5787850151600019600388901b60f8161c191681555b5050505050600190811b01905550565b614fcb806200031f6000396000f3fe6080604052600436106102ad5760003560e01c80638b9559bd11610175578063b977cb50116100dc578063e95a644f11610095578063ecc686a61161006f578063ecc686a6146109e7578063eeca08f014610a07578063fb650f1e14610a1d578063ff99a06314610a3d57600080fd5b8063e95a644f1461097a578063e985e9c51461099a578063e9e3e106146109ba57600080fd5b8063b977cb501461086c578063c87b56dd1461088c578063d244b206146108ac578063d9f103cc146108cc578063de74e57b146108ec578063deee9b451461095a57600080fd5b80639ff8ec321161012e5780639ff8ec3214610785578063a22cb465146107a5578063abdd9744146107c5578063ae2f7399146107f5578063af296da11461080b578063b88d4fde1461084c57600080fd5b80638b9559bd146106af5780638da5cb5b146106df5780639365fc87146106ff578063953865c11461071f57806395d89b41146107355780639cb04aef1461074a57600080fd5b8063305a905a1161021957806367dd74ca116101d257806367dd74ca146105c757806370a08231146105da57806374bc8656146105fa5780637b356c3614610627578063873f6f9e1461064757806389ce6e251461068257600080fd5b8063305a905a146104eb5780633ccfd60b1461050b57806342842e0e146105205780634a3bdc761461054057806361a5672d1461056e5780636352211e146105a757600080fd5b8063107a274a1161026b578063107a274a146103b057806318160ddd146104545780631b2ef1ca146104785780631bca05241461048b57806323b872dd146104ab5780632bbe807b146104cb57600080fd5b80627eddfa146102b257806301ffc9a7146102e757806306fdde0314610307578063081812fc14610329578063095ea7b3146103615780630ef7ec7414610383575b600080fd5b3480156102be57600080fd5b506102d26102cd366004614551565b610a8c565b60405190151581526020015b60405180910390f35b3480156102f357600080fd5b506102d2610302366004614593565b610e6a565b34801561031357600080fd5b5061031c610eba565b6040516102de9190614600565b34801561033557600080fd5b50610349610344366004614613565b610f4c565b6040516001600160a01b0390911681526020016102de565b34801561036d57600080fd5b5061038161037c36600461462c565b610f75565b005b34801561038f57600080fd5b506103a361039e366004614613565b610f84565b6040516102de9190614692565b3480156103bc57600080fd5b506104276103cb366004614613565b60408051606080820183526000808352602080840182905292840181905293845260138252928290208251938401835280548452600101546001600160a01b03811691840191909152600160a01b900460ff1615159082015290565b60408051825181526020808401516001600160a01b031690820152918101511515908201526060016102de565b34801561046057600080fd5b5061046a60095481565b6040519081526020016102de565b6103816104863660046146a5565b610fe6565b34801561049757600080fd5b506103816104a63660046146a5565b6113cc565b3480156104b757600080fd5b506103816104c63660046146c7565b61148d565b3480156104d757600080fd5b506103816104e6366004614613565b611518565b3480156104f757600080fd5b506103816105063660046146a5565b61160d565b34801561051757600080fd5b50610381611b27565b34801561052c57600080fd5b5061038161053b3660046146c7565b611c45565b34801561054c57600080fd5b5061056061055b366004614551565b611c65565b6040516102de929190614703565b34801561057a57600080fd5b5061058e610589366004614613565b611e2a565b6040516102de9d9c9b9a9998979695949392919061475c565b3480156105b357600080fd5b506103496105c2366004614613565b6120bc565b6103816105d5366004614613565b6120c7565b3480156105e657600080fd5b5061046a6105f5366004614814565b612503565b34801561060657600080fd5b5061061a610615366004614613565b61254b565b6040516102de919061482f565b34801561063357600080fd5b5061046a610642366004614814565b6128a3565b34801561065357600080fd5b506102d2610662366004614551565b601460209081526000928352604080842090915290825290205460ff1681565b34801561068e57600080fd5b5061046a61069d366004614613565b60116020526000908152604090205481565b3480156106bb57600080fd5b506102d26106ca366004614613565b60166020526000908152604090205460ff1681565b3480156106eb57600080fd5b50600754610349906001600160a01b031681565b34801561070b57600080fd5b5061038161071a366004614613565b61292c565b34801561072b57600080fd5b5061046a60085481565b34801561074157600080fd5b5061031c612f5c565b34801561075657600080fd5b506102d2610765366004614551565b600e60209081526000928352604080842090915290825290205460ff1681565b34801561079157600080fd5b506103a36107a0366004614613565b612f6b565b3480156107b157600080fd5b506103816107c0366004614942565b612fcb565b3480156107d157600080fd5b506102d26107e0366004614613565b60009081526016602052604090205460ff1690565b34801561080157600080fd5b5061046a600b5481565b34801561081757600080fd5b506103496108263660046146a5565b600f6020908152600092835260408084209091529082529020546001600160a01b031681565b34801561085857600080fd5b50610381610867366004614a0b565b612fd6565b34801561087857600080fd5b50610381610887366004614a87565b612fee565b34801561089857600080fd5b5061031c6108a7366004614613565b613384565b3480156108b857600080fd5b5061046a6108c73660046146a5565b6133f9565b3480156108d857600080fd5b50600c54610349906001600160a01b031681565b3480156108f857600080fd5b50610935610907366004614613565b601360205260009081526040902080546001909101546001600160a01b03811690600160a01b900460ff1683565b604080519384526001600160a01b0390921660208401521515908201526060016102de565b34801561096657600080fd5b50610381610975366004614b59565b61342a565b34801561098657600080fd5b50610381610995366004614613565b6136a2565b3480156109a657600080fd5b506102d26109b5366004614c50565b613af4565b3480156109c657600080fd5b5061046a6109d5366004614613565b60126020526000908152604090205481565b3480156109f357600080fd5b506102d2610a023660046146a5565b613b22565b348015610a1357600080fd5b5061046a600a5481565b348015610a2957600080fd5b50610381610a38366004614814565b613bbb565b348015610a4957600080fd5b50610a77610a58366004614613565b6000908152601160209081526040808320546012909252909120549091565b604080519283526020830191909152016102de565b6000821580610a9c575060085483115b15610aa957506000610e64565b6000600d6000858152602001908152602001600020604051806101a001604052908160008201548152602001600182018054610ae490614c7a565b80601f0160208091040260200160405190810160405280929190818152602001828054610b1090614c7a565b8015610b5d5780601f10610b3257610100808354040283529160200191610b5d565b820191906000526020600020905b815481529060010190602001808311610b4057829003601f168201915b50505050508152602001600282015481526020016003820154815260200160048201548152602001600582018054610b9490614c7a565b80601f0160208091040260200160405190810160405280929190818152602001828054610bc090614c7a565b8015610c0d5780601f10610be257610100808354040283529160200191610c0d565b820191906000526020600020905b815481529060010190602001808311610bf057829003601f168201915b50505050508152602001600682018054610c2690614c7a565b80601f0160208091040260200160405190810160405280929190818152602001828054610c5290614c7a565b8015610c9f5780601f10610c7457610100808354040283529160200191610c9f565b820191906000526020600020905b815481529060010190602001808311610c8257829003601f168201915b50505050508152602001600782018054610cb890614c7a565b80601f0160208091040260200160405190810160405280929190818152602001828054610ce490614c7a565b8015610d315780601f10610d0657610100808354040283529160200191610d31565b820191906000526020600020905b815481529060010190602001808311610d1457829003601f168201915b505050918352505060088201546001600160a01b038116602083015260ff600160a01b90910481161515604083015260098301546060830152600a8301546080830152600b90920154909116151560a0909101526101808101519091501580610dbc575060008481526014602090815260408083206001600160a01b038716845290915290205460ff165b80610dd05750600c546001600160a01b0316155b15610ddf576000915050610e64565b60015b6009548111610e5d5760008181526011602052604090205485148015610e215750836001600160a01b0316610e1682613c7d565b6001600160a01b0316145b8015610e3b575060008181526016602052604090205460ff165b15610e4b57600192505050610e64565b80610e5581614cca565b915050610de2565b5060009150505b92915050565b60006001600160e01b031982166380ac58cd60e01b1480610e9b57506001600160e01b03198216635b5e139f60e01b145b80610e6457506301ffc9a760e01b6001600160e01b0319831614610e64565b606060008054610ec990614c7a565b80601f0160208091040260200160405190810160405280929190818152602001828054610ef590614c7a565b8015610f425780601f10610f1757610100808354040283529160200191610f42565b820191906000526020600020905b815481529060010190602001808311610f2557829003601f168201915b5050505050905090565b6000610f5782613c98565b506000828152600460205260409020546001600160a01b0316610e64565b610f80828233613cd0565b5050565b600081815260106020908152604091829020805483518184028101840190945280845260609392830182828015610fda57602002820191906000526020600020905b815481526020019060010190808311610fc6575b50505050509050919050565b610fee613cdd565b8115801590610fff57506008548211155b6110245760405162461bcd60e51b815260040161101b90614ce3565b60405180910390fd5b6000828152600d602052604081209061103c336128a3565b90508060000361109a5781600a015442101561109a5760405162461bcd60e51b815260206004820152601e60248201527f504f415020686f6c64657273206f6e6c7920617420746869732074696d650000604482015260640161101b565b81600201543410156110e55760405162461bcd60e51b8152602060048201526014602482015273125b9cdd59999a58da595b9d081c185e5b595b9d60621b604482015260640161101b565b6000848152600f602090815260408083208684529091529020546001600160a01b03161561114a5760405162461bcd60e51b815260206004820152601260248201527129b2b0ba1030b63932b0b23c903a30b5b2b760711b604482015260640161101b565b60008311801561115e575081600401548311155b6111a05760405162461bcd60e51b815260206004820152601360248201527224b73b30b634b21039b2b0ba10373ab6b132b960691b604482015260640161101b565b6111aa8484613b22565b1561120f576000811161120f5760405162461bcd60e51b815260206004820152602760248201527f5072696f72697479207365617420726573657276656420666f7220504f415020604482015266686f6c6465727360c81b606482015260840161101b565b60018260030160008282546112249190614d10565b90915550506000848152600e6020908152604080832033808552908352818420805460ff19166001908117909155888552600f8452828520888652845282852080546001600160a01b0319169092179091558784526010835290832080549182018155835290822001849055600980549161129e83614cca565b90915550506009805460009081526011602090815260408083208890558354835260129091529020849055546112d5903390613d07565b34156113825760088201546040516000916001600160a01b03169034908381818185875af1925050503d806000811461132a576040519150601f19603f3d011682016040523d82523d6000602084013e61132f565b606091505b50509050806113805760405162461bcd60e51b815260206004820152601c60248201527f5472616e7366657220746f206f7267616e697a6572206661696c656400000000604482015260640161101b565b505b600954604080518581523360208201528692917f1ba4dd71a6c6f6e57c973c206da350ef7ea3fa12ba5dcc31a4862ee0de18dbc4910160405180910390a35050610f806001600655565b6007546001600160a01b031633146113f65760405162461bcd60e51b815260040161101b90614d23565b6127106114038284614d4f565b106114465760405162461bcd60e51b81526020600482015260136024820152720a8dee8c2d840cccacae640e8dede40d0d2ced606b1b604482015260640161101b565b600a829055600b81905560408051838152602081018390527f4f672c50736ba0fe8a4825ecfde8bcd931727422a77ac89af44fccce2746e0b3910160405180910390a15050565b6001600160a01b0382166114b757604051633250574960e11b81526000600482015260240161101b565b60006114c4838333613d21565b9050836001600160a01b0316816001600160a01b031614611512576040516364283d7b60e01b81526001600160a01b038086166004830152602482018490528216604482015260640161101b565b50505050565b6000818152601360205260409020600101546001600160a01b031633146115725760405162461bcd60e51b815260206004820152600e60248201526d2737ba103a34329039b2b63632b960911b604482015260640161101b565b600081815260136020526040902060010154600160a01b900460ff166115c75760405162461bcd60e51b815260206004820152600a602482015269139bdd081b1a5cdd195960b21b604482015260640161101b565b600081815260136020526040808220600101805460ff60a01b191690555182917f3967925235f70873eabda48c5242393d4d41d99cd105109a90601202792fad5091a250565b33611617836120bc565b6001600160a01b0316146116605760405162461bcd60e51b815260206004820152601060248201526f2737ba103a34b1b5b2ba1037bbb732b960811b604482015260640161101b565b600081116116b05760405162461bcd60e51b815260206004820152601c60248201527f5072696365206d7573742062652067726561746572207468616e203000000000604482015260640161101b565b600082815260116020908152604080832054808452600d835281842082516101a08101909352805483526001810180549295949192918401916116f290614c7a565b80601f016020809104026020016040519081016040528092919081815260200182805461171e90614c7a565b801561176b5780601f106117405761010080835404028352916020019161176b565b820191906000526020600020905b81548152906001019060200180831161174e57829003601f168201915b505050505081526020016002820154815260200160038201548152602001600482015481526020016005820180546117a290614c7a565b80601f01602080910402602001604051908101604052809291908181526020018280546117ce90614c7a565b801561181b5780601f106117f05761010080835404028352916020019161181b565b820191906000526020600020905b8154815290600101906020018083116117fe57829003601f168201915b5050505050815260200160068201805461183490614c7a565b80601f016020809104026020016040519081016040528092919081815260200182805461186090614c7a565b80156118ad5780601f10611882576101008083540402835291602001916118ad565b820191906000526020600020905b81548152906001019060200180831161189057829003601f168201915b505050505081526020016007820180546118c690614c7a565b80601f01602080910402602001604051908101604052809291908181526020018280546118f290614c7a565b801561193f5780601f106119145761010080835404028352916020019161193f565b820191906000526020600020905b81548152906001019060200180831161192257829003601f168201915b505050918352505060088201546001600160a01b038116602083015260ff600160a01b90910481161515604083015260098301546060830152600a8301546080830152600b90920154909116151560a0909101526101208101519091506119e05760405162461bcd60e51b81526020600482015260156024820152745469636b6574206e6f7420726573656c6c61626c6560581b604482015260640161101b565b8060400151831115611a345760405162461bcd60e51b815260206004820181905260248201527f50726963652063616e6e6f742065786365656420696e697469616c20636f7374604482015260640161101b565b600084815260136020526040902060010154600160a01b900460ff1615611a8e5760405162461bcd60e51b815260206004820152600e60248201526d105b1c9958591e481b1a5cdd195960921b604482015260640161101b565b60408051606081018252848152336020808301828152600184860181815260008b8152601385528790209551865591519401805491511515600160a01b026001600160a81b03199092166001600160a01b03909516949094171790925582518681529182015285917f5ddeb20641397a4006800e63273f4f75df6e6964e4456220df00032d3d160da7910160405180910390a250505050565b6007546001600160a01b03163314611b515760405162461bcd60e51b815260040161101b90614d23565b611b59613cdd565b4780611ba05760405162461bcd60e51b81526020600482015260166024820152754e6f2062616c616e636520746f20776974686472617760501b604482015260640161101b565b6007546040516000916001600160a01b03169083908381818185875af1925050503d8060008114611bed576040519150601f19603f3d011682016040523d82523d6000602084013e611bf2565b606091505b5050905080611c375760405162461bcd60e51b815260206004820152601160248201527015da5d1a191c985dd85b0819985a5b1959607a1b604482015260640161101b565b5050611c436001600655565b565b611c6083838360405180602001604052806000815250612fd6565b505050565b606080600060015b6009548111611cd15760008181526011602052604090205486148015611cac5750846001600160a01b0316611ca182613c7d565b6001600160a01b0316145b15611cbf5781611cbb81614cca565b9250505b80611cc981614cca565b915050611c6d565b508067ffffffffffffffff811115611ceb57611ceb61496c565b604051908082528060200260200182016040528015611d14578160200160208202803683370190505b5092508067ffffffffffffffff811115611d3057611d3061496c565b604051908082528060200260200182016040528015611d59578160200160208202803683370190505b509150600060015b6009548111611e205760008181526011602052604090205487148015611da05750856001600160a01b0316611d9582613c7d565b6001600160a01b0316145b15611e0e5780858381518110611db857611db8614d62565b602090810291909101810191909152600082815260169091526040902054845160ff90911690859084908110611df057611df0614d62565b9115156020928302919091019091015281611e0a81614cca565b9250505b80611e1881614cca565b915050611d61565b5050509250929050565b600d6020526000908152604090208054600182018054919291611e4c90614c7a565b80601f0160208091040260200160405190810160405280929190818152602001828054611e7890614c7a565b8015611ec55780601f10611e9a57610100808354040283529160200191611ec5565b820191906000526020600020905b815481529060010190602001808311611ea857829003601f168201915b505050505090806002015490806003015490806004015490806005018054611eec90614c7a565b80601f0160208091040260200160405190810160405280929190818152602001828054611f1890614c7a565b8015611f655780601f10611f3a57610100808354040283529160200191611f65565b820191906000526020600020905b815481529060010190602001808311611f4857829003601f168201915b505050505090806006018054611f7a90614c7a565b80601f0160208091040260200160405190810160405280929190818152602001828054611fa690614c7a565b8015611ff35780601f10611fc857610100808354040283529160200191611ff3565b820191906000526020600020905b815481529060010190602001808311611fd657829003601f168201915b50505050509080600701805461200890614c7a565b80601f016020809104026020016040519081016040528092919081815260200182805461203490614c7a565b80156120815780601f1061205657610100808354040283529160200191612081565b820191906000526020600020905b81548152906001019060200180831161206457829003601f168201915b50505060088401546009850154600a860154600b9096015494956001600160a01b0383169560ff600160a01b9094048416955091935091168d565b6000610e6482613c98565b6120cf613cdd565b60008181526013602052604090206001810154600160a01b900460ff1661212e5760405162461bcd60e51b81526020600482015260136024820152725469636b6574206e6f7420666f722073616c6560681b604482015260640161101b565b80543410156121765760405162461bcd60e51b8152602060048201526014602482015273125b9cdd59999a58da595b9d081c185e5b595b9d60621b604482015260640161101b565b6001810180548254600085815260116020908152604080832054808452600d90925282206008015460ff60a01b198516909555600a546001600160a01b0394851695939491939091169190612710906121cf9086614d78565b6121d99190614d8f565b90506000612710600b54866121ee9190614d78565b6121f89190614d8f565b90506000816122078488614d10565b6122119190614d10565b905061221e87338b613db2565b6000876001600160a01b03168260405160006040518083038185875af1925050503d806000811461226b576040519150601f19603f3d011682016040523d82523d6000602084013e612270565b606091505b50509050806122c15760405162461bcd60e51b815260206004820152601960248201527f5472616e7366657220746f2073656c6c6572206661696c656400000000000000604482015260640161101b565b6000856001600160a01b03168460405160006040518083038185875af1925050503d806000811461230e576040519150601f19603f3d011682016040523d82523d6000602084013e612313565b606091505b50509050806123645760405162461bcd60e51b815260206004820152601c60248201527f5472616e7366657220746f206f7267616e697a6572206661696c656400000000604482015260640161101b565b6007546040516000916001600160a01b03169087908381818185875af1925050503d80600081146123b1576040519150601f19603f3d011682016040523d82523d6000602084013e6123b6565b606091505b50509050806124075760405162461bcd60e51b815260206004820152601b60248201527f5472616e7366657220746f20706c6174666f726d206661696c65640000000000604482015260640161101b565b883411156124a05760003361241c8b34614d10565b604051600081818185875af1925050503d8060008114612458576040519150601f19603f3d011682016040523d82523d6000602084013e61245d565b606091505b505090508061249e5760405162461bcd60e51b815260206004820152600d60248201526c1499599d5b990819985a5b1959609a1b604482015260640161101b565b505b604080516001600160a01b038c1681523360208201529081018a90528c907f2bbc64d6afd28a753f6c5e4aaa894f1d684c44a0e080167eae104ac8505cfebd9060600160405180910390a250505050505050505050506125006001600655565b50565b60006001600160a01b03821661252f576040516322718ad960e21b81526000600482015260240161101b565b506001600160a01b031660009081526003602052604090205490565b6125c3604051806101a00160405280600081526020016060815260200160008152602001600081526020016000815260200160608152602001606081526020016060815260200160006001600160a01b0316815260200160001515815260200160008152602001600081526020016000151581525090565b600d6000838152602001908152602001600020604051806101a0016040529081600082015481526020016001820180546125fc90614c7a565b80601f016020809104026020016040519081016040528092919081815260200182805461262890614c7a565b80156126755780601f1061264a57610100808354040283529160200191612675565b820191906000526020600020905b81548152906001019060200180831161265857829003601f168201915b505050505081526020016002820154815260200160038201548152602001600482015481526020016005820180546126ac90614c7a565b80601f01602080910402602001604051908101604052809291908181526020018280546126d890614c7a565b80156127255780601f106126fa57610100808354040283529160200191612725565b820191906000526020600020905b81548152906001019060200180831161270857829003601f168201915b5050505050815260200160068201805461273e90614c7a565b80601f016020809104026020016040519081016040528092919081815260200182805461276a90614c7a565b80156127b75780601f1061278c576101008083540402835291602001916127b7565b820191906000526020600020905b81548152906001019060200180831161279a57829003601f168201915b505050505081526020016007820180546127d090614c7a565b80601f01602080910402602001604051908101604052809291908181526020018280546127fc90614c7a565b80156128495780601f1061281e57610100808354040283529160200191612849565b820191906000526020600020905b81548152906001019060200180831161282c57829003601f168201915b505050918352505060088201546001600160a01b038116602083015260ff600160a01b90910481161515604083015260098301546060830152600a8301546080830152600b90920154909116151560a09091015292915050565b600c546000906001600160a01b03166128be57506000919050565b600c546040516370a0823160e01b81526001600160a01b038481166004830152909116906370a0823190602401602060405180830381865afa158015612908573d6000803e3d6000fd5b505050506040513d601f19601f82011682018060405250810190610e649190614db1565b612934613cdd565b60008111801561294657506008548111155b6129625760405162461bcd60e51b815260040161101b90614ce3565b6000600d6000838152602001908152602001600020604051806101a00160405290816000820154815260200160018201805461299d90614c7a565b80601f01602080910402602001604051908101604052809291908181526020018280546129c990614c7a565b8015612a165780601f106129eb57610100808354040283529160200191612a16565b820191906000526020600020905b8154815290600101906020018083116129f957829003601f168201915b50505050508152602001600282015481526020016003820154815260200160048201548152602001600582018054612a4d90614c7a565b80601f0160208091040260200160405190810160405280929190818152602001828054612a7990614c7a565b8015612ac65780601f10612a9b57610100808354040283529160200191612ac6565b820191906000526020600020905b815481529060010190602001808311612aa957829003601f168201915b50505050508152602001600682018054612adf90614c7a565b80601f0160208091040260200160405190810160405280929190818152602001828054612b0b90614c7a565b8015612b585780601f10612b2d57610100808354040283529160200191612b58565b820191906000526020600020905b815481529060010190602001808311612b3b57829003601f168201915b50505050508152602001600782018054612b7190614c7a565b80601f0160208091040260200160405190810160405280929190818152602001828054612b9d90614c7a565b8015612bea5780601f10612bbf57610100808354040283529160200191612bea565b820191906000526020600020905b815481529060010190602001808311612bcd57829003601f168201915b505050918352505060088201546001600160a01b038116602083015260ff600160a01b90910481161515604083015260098301546060830152600a8301546080830152600b90920154909116151560a090910152610180810151909150612c935760405162461bcd60e51b815260206004820152601f60248201527f504f4150206e6f7420656e61626c656420666f722074686973206576656e7400604482015260640161101b565b6000828152600e6020908152604080832033845290915290205460ff16612cfc5760405162461bcd60e51b815260206004820152601960248201527f446964206e6f7420617474656e642074686973206576656e7400000000000000604482015260640161101b565b600082815260146020908152604080832033845290915290205460ff1615612d5d5760405162461bcd60e51b81526020600482015260146024820152731413d05408185b1c9958591e4818db185a5b595960621b604482015260640161101b565b600c546001600160a01b0316612dad5760405162461bcd60e51b81526020600482015260156024820152741413d0540818dbdb9d1c9858dd081b9bdd081cd95d605a1b604482015260640161101b565b600060015b6009548111612e225760008181526011602052604090205484148015612de8575033612ddd82613c7d565b6001600160a01b0316145b8015612e02575060008181526016602052604090205460ff165b15612e105760019150612e22565b80612e1a81614cca565b915050612db2565b5080612e705760405162461bcd60e51b815260206004820152601a60248201527f4e6f20636865636b65642d696e207469636b657420666f756e64000000000000604482015260640161101b565b6000838152601460209081526040808320338085529252808320805460ff19166001179055600c54905163e488451f60e01b81526004810192909252602482018690526001600160a01b03169063e488451f906044016020604051808303816000875af1158015612ee5573d6000803e3d6000fd5b505050506040513d601f19601f82011682018060405250810190612f099190614db1565b9050336001600160a01b0316847f27a090af1940b8597c1b9586aac92b27444581341e932bd23b5e4c00422d30cb83604051612f4791815260200190565b60405180910390a35050506125006001600655565b606060018054610ec990614c7a565b600081815260156020908152604091829020805483518184028101840190945280845260609392830182828015610fda5760200282019190600052602060002090815481526020019060010190808311610fc65750505050509050919050565b610f80338383613e62565b612fe184848461148d565b6115123385858585613f01565b60008211801561300057506008548211155b61301c5760405162461bcd60e51b815260040161101b90614ce3565b6000600d6000848152602001908152602001600020604051806101a00160405290816000820154815260200160018201805461305790614c7a565b80601f016020809104026020016040519081016040528092919081815260200182805461308390614c7a565b80156130d05780601f106130a5576101008083540402835291602001916130d0565b820191906000526020600020905b8154815290600101906020018083116130b357829003601f168201915b5050505050815260200160028201548152602001600382015481526020016004820154815260200160058201805461310790614c7a565b80601f016020809104026020016040519081016040528092919081815260200182805461313390614c7a565b80156131805780601f1061315557610100808354040283529160200191613180565b820191906000526020600020905b81548152906001019060200180831161316357829003601f168201915b5050505050815260200160068201805461319990614c7a565b80601f01602080910402602001604051908101604052809291908181526020018280546131c590614c7a565b80156132125780601f106131e757610100808354040283529160200191613212565b820191906000526020600020905b8154815290600101906020018083116131f557829003601f168201915b5050505050815260200160078201805461322b90614c7a565b80601f016020809104026020016040519081016040528092919081815260200182805461325790614c7a565b80156132a45780601f10613279576101008083540402835291602001916132a4565b820191906000526020600020905b81548152906001019060200180831161328757829003601f168201915b505050918352505060088201546001600160a01b03808216602084015260ff600160a01b90920482161515604084015260098401546060840152600a8401546080840152600b9093015416151560a090910152610100820151919250339116148061331957506007546001600160a01b031633145b6133655760405162461bcd60e51b815260206004820152601760248201527f4f6e6c79206f7267616e697a6572206f72206f776e6572000000000000000000604482015260640161101b565b60008381526015602090815260409091208351611512928501906144d5565b606061338f82613c98565b5060006133a760408051602081019091526000815290565b905060008151116133c757604051806020016040528060008152506133f2565b806133d18461402c565b6040516020016133e2929190614dca565b6040516020818303038152906040525b9392505050565b6015602052816000526040600020818154811061341557600080fd5b90600052602060002001600091509150505481565b4283116134795760405162461bcd60e51b815260206004820181905260248201527f4576656e7420656e642074696d65206d75737420626520696e20667574757265604482015260640161101b565b828211156134da5760405162461bcd60e51b815260206004820152602860248201527f5075626c69632073616c65206d757374207374617274206265666f7265206576604482015267656e7420656e647360c01b606482015260840161101b565b600880549060006134ea83614cca565b9190505550604051806101a0016040528060085481526020018b81526020018a8152602001898152602001898152602001888152602001878152602001868152602001336001600160a01b031681526020018515158152602001848152602001838152602001821515815250600d6000600854815260200190815260200160002060008201518160000155602082015181600101908161358a9190614e41565b5060408201516002820155606082015160038201556080820151600482015560a082015160058201906135bd9082614e41565b5060c082015160068201906135d29082614e41565b5060e082015160078201906135e79082614e41565b50610100820151600882810180546101208601516001600160a01b039094166001600160a81b031990911617600160a01b93151593909302929092179091556101408301516009830155610160830151600a83015561018090920151600b909101805460ff1916911515919091179055546040517f7cfb1b270cfbb6a130fdaec217e58f89202e28b01c9d94fac907dc71b5d3361b9061368e908d90339089908790614f01565b60405180910390a250505050505050505050565b60006136ad82613c7d565b6001600160a01b0316036136fa5760405162461bcd60e51b8152602060048201526014602482015273151bdad95b88191bd95cc81b9bdd08195e1a5cdd60621b604482015260640161101b565b600081815260116020908152604080832054808452600d835281842082516101a081019093528054835260018101805492959491929184019161373c90614c7a565b80601f016020809104026020016040519081016040528092919081815260200182805461376890614c7a565b80156137b55780601f1061378a576101008083540402835291602001916137b5565b820191906000526020600020905b81548152906001019060200180831161379857829003601f168201915b505050505081526020016002820154815260200160038201548152602001600482015481526020016005820180546137ec90614c7a565b80601f016020809104026020016040519081016040528092919081815260200182805461381890614c7a565b80156138655780601f1061383a57610100808354040283529160200191613865565b820191906000526020600020905b81548152906001019060200180831161384857829003601f168201915b5050505050815260200160068201805461387e90614c7a565b80601f01602080910402602001604051908101604052809291908181526020018280546138aa90614c7a565b80156138f75780601f106138cc576101008083540402835291602001916138f7565b820191906000526020600020905b8154815290600101906020018083116138da57829003601f168201915b5050505050815260200160078201805461391090614c7a565b80601f016020809104026020016040519081016040528092919081815260200182805461393c90614c7a565b80156139895780601f1061395e57610100808354040283529160200191613989565b820191906000526020600020905b81548152906001019060200180831161396c57829003601f168201915b505050918352505060088201546001600160a01b03808216602084015260ff600160a01b90920482161515604084015260098401546060840152600a8401546080840152600b9093015416151560a09091015261010082015191925033911614613a355760405162461bcd60e51b815260206004820152601b60248201527f4f6e6c79206f7267616e697a65722063616e20636865636b20696e0000000000604482015260640161101b565b60008381526016602052604090205460ff1615613a895760405162461bcd60e51b815260206004820152601260248201527120b63932b0b23c9031b432b1b5b2b21034b760711b604482015260640161101b565b6000838152601660205260409020805460ff19166001179055613aab836120bc565b6001600160a01b031682847f2782fb3b1d5410074bc2b5c4dc27369e9e67acedb9a92b1ca450f910bcba51d442604051613ae791815260200190565b60405180910390a4505050565b6001600160a01b03918216600090815260056020908152604080832093909416825291909152205460ff1690565b600082815260156020908152604080832080548251818502810185019093528083528493830182828015613b7557602002820191906000526020600020905b815481526020019060010190808311613b61575b5050505050905060005b8151811015610e5d5783828281518110613b9b57613b9b614d62565b602002602001015103613bb357600192505050610e64565b600101613b7f565b6007546001600160a01b03163314613be55760405162461bcd60e51b815260040161101b90614d23565b6001600160a01b038116613c335760405162461bcd60e51b8152602060048201526015602482015274125b9d985b1a59081413d0540818dbdb9d1c9858dd605a1b604482015260640161101b565b600c80546001600160a01b0319166001600160a01b0383169081179091556040517fef0b86e7058ae1b724cd6bcbc5fc6ccc74b174653e6f9235c83a6d0b4d9dc3ab90600090a250565b6000908152600260205260409020546001600160a01b031690565b600080613ca483613c7d565b90506001600160a01b038116610e6457604051637e27328960e01b81526004810184905260240161101b565b611c6083838360016140bf565b600260065403613d0057604051633ee5aeb560e01b815260040160405180910390fd5b6002600655565b610f808282604051806020016040528060008152506141c5565b600080613d2f8585856141dd565b90506001600160a01b03811615801590613d615750600084815260136020526040902060010154600160a01b900460ff165b15613daa57600084815260136020526040808220600101805460ff60a01b191690555185917f3967925235f70873eabda48c5242393d4d41d99cd105109a90601202792fad5091a25b949350505050565b6001600160a01b038216613ddc57604051633250574960e11b81526000600482015260240161101b565b6000613dea83836000613d21565b90506001600160a01b038116613e1657604051637e27328960e01b81526004810183905260240161101b565b836001600160a01b0316816001600160a01b031614611512576040516364283d7b60e01b81526001600160a01b038086166004830152602482018490528216604482015260640161101b565b6001600160a01b038216613e9457604051630b61174360e31b81526001600160a01b038316600482015260240161101b565b6001600160a01b03838116600081815260056020908152604080832094871680845294825291829020805460ff191686151590811790915591519182527f17307eab39ab6107e8899845ad3d59bd9653f200f220920489ca2b5937696c31910160405180910390a3505050565b6001600160a01b0383163b1561402557604051630a85bd0160e11b81526001600160a01b0384169063150b7a0290613f43908890889087908790600401614f3b565b6020604051808303816000875af1925050508015613f7e575060408051601f3d908101601f19168201909252613f7b91810190614f78565b60015b613fe7573d808015613fac576040519150601f19603f3d011682016040523d82523d6000602084013e613fb1565b606091505b508051600003613fdf57604051633250574960e11b81526001600160a01b038516600482015260240161101b565b805160208201fd5b6001600160e01b03198116630a85bd0160e11b1461402357604051633250574960e11b81526001600160a01b038516600482015260240161101b565b505b5050505050565b60606000614039836142d1565b600101905060008167ffffffffffffffff8111156140595761405961496c565b6040519080825280601f01601f191660200182016040528015614083576020820181803683370190505b5090508181016020015b600019016f181899199a1a9b1b9c1cb0b131b232b360811b600a86061a8153600a850494508461408d57509392505050565b80806140d357506001600160a01b03821615155b156141955760006140e384613c98565b90506001600160a01b0383161580159061410f5750826001600160a01b0316816001600160a01b031614155b801561412257506141208184613af4565b155b1561414b5760405163a9fbf51f60e01b81526001600160a01b038416600482015260240161101b565b81156141935783856001600160a01b0316826001600160a01b03167f8c5be1e5ebec7d5bd14f71427d1e84f3dd0314c0f7b2291e5b200ac8c7c3b92560405160405180910390a45b505b5050600090815260046020526040902080546001600160a01b0319166001600160a01b0392909216919091179055565b6141cf83836143a9565b611c60336000858585613f01565b6000806141e984613c7d565b90506001600160a01b038316156142055761420581848661440e565b6001600160a01b03811615614243576142226000856000806140bf565b6001600160a01b038116600090815260036020526040902080546000190190555b6001600160a01b03851615614272576001600160a01b0385166000908152600360205260409020805460010190555b60008481526002602052604080822080546001600160a01b0319166001600160a01b0389811691821790925591518793918516917fddf252ad1be2c89b69c2b068fc378daa952ba7f163c4a11628f55a4df523b3ef91a4949350505050565b60008072184f03e93ff9f4daa797ed6e38ed64bf6a1f0160401b83106143105772184f03e93ff9f4daa797ed6e38ed64bf6a1f0160401b830492506040015b6d04ee2d6d415b85acef8100000000831061433c576d04ee2d6d415b85acef8100000000830492506020015b662386f26fc10000831061435a57662386f26fc10000830492506010015b6305f5e1008310614372576305f5e100830492506008015b612710831061438657612710830492506004015b60648310614398576064830492506002015b600a8310610e645760010192915050565b6001600160a01b0382166143d357604051633250574960e11b81526000600482015260240161101b565b60006143e183836000613d21565b90506001600160a01b03811615611c60576040516339e3563760e11b81526000600482015260240161101b565b614419838383614472565b611c60576001600160a01b03831661444757604051637e27328960e01b81526004810182905260240161101b565b60405163177e802f60e01b81526001600160a01b03831660048201526024810182905260440161101b565b60006001600160a01b03831615801590613daa5750826001600160a01b0316846001600160a01b031614806144ac57506144ac8484613af4565b80613daa5750506000908152600460205260409020546001600160a01b03908116911614919050565b828054828255906000526020600020908101928215614510579160200282015b828111156145105782518255916020019190600101906144f5565b5061451c929150614520565b5090565b5b8082111561451c5760008155600101614521565b80356001600160a01b038116811461454c57600080fd5b919050565b6000806040838503121561456457600080fd5b8235915061457460208401614535565b90509250929050565b6001600160e01b03198116811461250057600080fd5b6000602082840312156145a557600080fd5b81356133f28161457d565b60005b838110156145cb5781810151838201526020016145b3565b50506000910152565b600081518084526145ec8160208601602086016145b0565b601f01601f19169290920160200192915050565b6020815260006133f260208301846145d4565b60006020828403121561462557600080fd5b5035919050565b6000806040838503121561463f57600080fd5b61464883614535565b946020939093013593505050565b60008151808452602080850194506020840160005b838110156146875781518752958201959082019060010161466b565b509495945050505050565b6020815260006133f26020830184614656565b600080604083850312156146b857600080fd5b50508035926020909101359150565b6000806000606084860312156146dc57600080fd5b6146e584614535565b92506146f360208501614535565b9150604084013590509250925092565b6040815260006147166040830185614656565b82810360208481019190915284518083528582019282019060005b8181101561474f578451151583529383019391830191600101614731565b5090979650505050505050565b8d81526101a0602082015260006147776101a083018f6145d4565b8d60408401528c60608401528b608084015282810360a084015261479b818c6145d4565b905082810360c08401526147af818b6145d4565b905082810360e08401526147c3818a6145d4565b9150506147dc6101008301886001600160a01b03169052565b851515610120830152846101408301528361016083015261480261018083018415159052565b9e9d5050505050505050505050505050565b60006020828403121561482657600080fd5b6133f282614535565b6020815281516020820152600060208301516101a08060408501526148586101c08501836145d4565b91506040850151606085015260608501516080850152608085015160a085015260a0850151601f19808685030160c087015261489484836145d4565b935060c08701519150808685030160e08701526148b184836145d4565b935060e087015191506101008187860301818801526148d085846145d4565b945080880151925050506101206148f1818701836001600160a01b03169052565b86015190506101406149068682018315159052565b860151610160868101919091528601516101808087019190915290950151151593019290925250919050565b8035801515811461454c57600080fd5b6000806040838503121561495557600080fd5b61495e83614535565b915061457460208401614932565b634e487b7160e01b600052604160045260246000fd5b604051601f8201601f1916810167ffffffffffffffff811182821017156149ab576149ab61496c565b604052919050565b600067ffffffffffffffff8311156149cd576149cd61496c565b6149e0601f8401601f1916602001614982565b90508281528383830111156149f457600080fd5b828260208301376000602084830101529392505050565b60008060008060808587031215614a2157600080fd5b614a2a85614535565b9350614a3860208601614535565b925060408501359150606085013567ffffffffffffffff811115614a5b57600080fd5b8501601f81018713614a6c57600080fd5b614a7b878235602084016149b3565b91505092959194509250565b60008060408385031215614a9a57600080fd5b8235915060208084013567ffffffffffffffff80821115614aba57600080fd5b818601915086601f830112614ace57600080fd5b813581811115614ae057614ae061496c565b8060051b9150614af1848301614982565b8181529183018401918481019089841115614b0b57600080fd5b938501935b83851015614b2957843582529385019390850190614b10565b8096505050505050509250929050565b600082601f830112614b4a57600080fd5b6133f2838335602085016149b3565b6000806000806000806000806000806101408b8d031215614b7957600080fd5b8a3567ffffffffffffffff80821115614b9157600080fd5b614b9d8e838f01614b39565b9b5060208d01359a5060408d0135995060608d0135915080821115614bc157600080fd5b614bcd8e838f01614b39565b985060808d0135915080821115614be357600080fd5b614bef8e838f01614b39565b975060a08d0135915080821115614c0557600080fd5b50614c128d828e01614b39565b955050614c2160c08c01614932565b935060e08b013592506101008b01359150614c3f6101208c01614932565b90509295989b9194979a5092959850565b60008060408385031215614c6357600080fd5b614c6c83614535565b915061457460208401614535565b600181811c90821680614c8e57607f821691505b602082108103614cae57634e487b7160e01b600052602260045260246000fd5b50919050565b634e487b7160e01b600052601160045260246000fd5b600060018201614cdc57614cdc614cb4565b5060010190565b602080825260139082015272125b9d985b1a59081bd8d8d85cda5bdb881251606a1b604082015260600190565b81810381811115610e6457610e64614cb4565b6020808252601290820152712737ba1031b7b73a3930b1ba1037bbb732b960711b604082015260600190565b80820180821115610e6457610e64614cb4565b634e487b7160e01b600052603260045260246000fd5b8082028115828204841417610e6457610e64614cb4565b600082614dac57634e487b7160e01b600052601260045260246000fd5b500490565b600060208284031215614dc357600080fd5b5051919050565b60008351614ddc8184602088016145b0565b835190830190614df08183602088016145b0565b01949350505050565b601f821115611c60576000816000526020600020601f850160051c81016020861015614e225750805b601f850160051c820191505b8181101561402357828155600101614e2e565b815167ffffffffffffffff811115614e5b57614e5b61496c565b614e6f81614e698454614c7a565b84614df9565b602080601f831160018114614ea45760008415614e8c5750858301515b600019600386901b1c1916600185901b178555614023565b600085815260208120601f198616915b82811015614ed357888601518255948401946001909101908401614eb4565b5085821015614ef15787850151600019600388901b60f8161c191681555b5050505050600190811b01905550565b608081526000614f1460808301876145d4565b6001600160a01b039590951660208301525091151560408301521515606090910152919050565b6001600160a01b0385811682528416602082015260408101839052608060608201819052600090614f6e908301846145d4565b9695505050505050565b600060208284031215614f8a57600080fd5b81516133f28161457d56fea2646970667358221220ffff8ca4aa504601b2ab006e88e9037f72db5de9a466955bf5c0175cb3e0701f64736f6c63430008180033",
  "linkReferences": {},
  "deployedLinkReferences": {}
}