{
  "_format": "hh-sol-artifact-1",
  "contractName": "TokenMaster",
  "sourceName": "contracts/TicketContract.sol",
  "abi": [
    {
      "inputs": [
        {
          "internalType": "string",
          "name": "_name",
          "type": "string"
        },
        {
          "internalType": "string",
          "name": "_symbol",
          "type": "string"
        }
      ],
      "stateMutability": "nonpayable",
      "type": "constructor"
    },
    {
      "inputs": [
        {
          "internalType": "address",
          "name": "sender",
          "type": "address"
        },
        {
          "internalType": "uint256",
          "name": "tokenId",
          "type": "uint256"
        },
        {
          "internalType": "address",
          "name": "owner",
          "type": "address"
        }
      ],
      "name": "ERC721IncorrectOwner",
      "type": "error"
    },
    {
      "inputs": [
        {
          "internalType": "address",
          "name": "operator",
          "type": "address"
        },
        {
          "internalType": "uint256",
          "name": "tokenId",
          "type": "uint256"
        }
      ],
      "name": "ERC721InsufficientApproval",
      "type": "error"
    },
    {
      "inputs": [
        {
          "internalType": "address",
          "name": "approver",
          "type": "address"
        }
      ],
      "name": "ERC721InvalidApprover",
      "type": "error"
    },
    {
      "inputs": [
        {
          "internalType": "address",
          "name": "operator",
          "type": "address"
        }
      ],
      "name": "ERC721InvalidOperator",
      "type": "error"
    },
    {
      "inputs": [
        {
          "internalType": "address",
          "name": "owner",
          "type": "address"
        }
      ],
      "name": "ERC721InvalidOwner",
      "type": "error"
    },
    {
      "inputs": [
        {
          "internalType": "address",
          "name": "receiver",
          "type": "address"
        }
      ],
      "name": "ERC721InvalidReceiver",
      "type": "error"
    },
    {
      "inputs": [
        {
          "internalType": "address",
          "name": "sender",
          "type": "address"
        }
      ],
      "name": "ERC721InvalidSender",
      "type": "error"
    },
    {
      "inputs": [
        {
          "internalType": "uint256",
          "name": "tokenId",
          "type": "uint256"
        }
      ],
      "name": "ERC721NonexistentToken",
      "type": "error"
    },
    {
      "anonymous": false,
      "inputs": [
        {
          "indexed": true,
          "internalType": "address",
          "name": "owner",
          "type": "address"
        },
        {
          "indexed": true,
          "internalType": "address",
          "name": "approved",
          "type": "address"
        },
        {
          "indexed": true,
          "internalType": "uint256",
          "name": "tokenId",
          "type": "uint256"
        }
      ],
      "name": "Approval",
      "type": "event"
    },
    {
      "anonymous": false,
      "inputs": [
        {
          "indexed": true,
          "internalType": "address",
          "name": "owner",
          "type": "address"
        },
        {
          "indexed": true,
          "internalType": "address",
          "name": "operator",
          "type": "address"
        },
        {
          "indexed": false,
          "internalType": "bool",
          "name": "approved",
          "type": "bool"
        }
      ],
      "name": "ApprovalForAll",
      "type": "event"
    },
    {
      "anonymous": false,
      "inputs": [
        {
          "indexed": true,
          "internalType": "address",
          "name": "from",
          "type": "address"
        },
        {
          "indexed": true,
          "internalType": "address",
          "name": "to",
          "type": "address"
        },
        {
          "indexed": true,
          "internalType": "uint256",
          "name": "tokenId",
          "type": "uint256"
        }
      ],
      "name": "Transfer",
      "type": "event"
    },
    {
      "inputs": [
        {
          "internalType": "address",
          "name": "to",
          "type": "address"
        },
        {
          "internalType": "uint256",
          "name": "tokenId",
          "type": "uint256"
        }
      ],
      "name": "approve",
      "outputs": [],
      "stateMutability": "nonpayable",
      "type": "function"
    },
    {
      "inputs": [
        {
          "internalType": "address",
          "name": "owner",
          "type": "address"
        }
      ],
      "name": "balanceOf",
      "outputs": [
        {
          "internalType": "uint256",
          "name": "",
          "type": "uint256"
        }
      ],
      "stateMutability": "view",
      "type": "function"
    },
    {
      "inputs": [
        {
          "internalType": "uint256",
          "name": "tokenId",
          "type": "uint256"
        }
      ],
      "name": "getApproved",
      "outputs": [
        {
          "internalType": "address",
          "name": "",
          "type": "address"
        }
      ],
      "stateMutability": "view",
      "type": "function"
    },
    {
      "inputs": [
        {
          "internalType": "uint256",
          "name": "_id",
          "type": "uint256"
        }
      ],
      "name": "getOccasion",
      "outputs": [
        {
          "components": [
            {
              "internalType": "uint256",
              "name": "id",
              "type": "uint256"
            },
            {
              "internalType": "string",
              "name": "name",
              "type": "string"
            },
            {
              "internalType": "uint256",
              "name": "cost",
              "type": "uint256"
            },
            {
              "internalType": "uint256",
              "name": "tickets",
              "type": "uint256"
            },
            {
              "internalType": "uint256",
              "name": "maxTickets",
              "type": "uint256"
            },
            {
              "internalType": "string",
              "name": "date",
              "type": "string"
            },
            {
              "internalType": "string",
              "name": "time",
              "type": "string"
            },
            {
              "internalType": "string",
              "name": "location",
              "type": "string"
            }
          ],
          "internalType": "struct TokenMaster.Occasion",
          "name": "",
          "type": "tuple"
        }
      ],
      "stateMutability": "view",
      "type": "function"
    },
    {
      "inputs": [
        {
          "internalType": "uint256",
          "name": "_id",
          "type": "uint256"
        }
      ],
      "name": "getSeatsTaken",
      "outputs": [
        {
          "internalType": "uint256[]",
          "name": "",
          "type": "uint256[]"
        }
      ],
      "stateMutability": "view",
      "type": "function"
    },
    {
      "inputs": [
        {
          "internalType": "uint256",
          "name": "",
          "type": "uint256"
        },
        {
          "internalType": "address",
          "name": "",
          "type": "address"
        }
      ],
      "name": "hasBought",
      "outputs": [
        {
          "internalType": "bool",
          "name": "",
          "type": "bool"
        }
      ],
      "stateMutability": "view",
      "type": "function"
    },
    {
      "inputs": [
        {
          "internalType": "address",
          "name": "owner",
          "type": "address"
        },
        {
          "internalType": "address",
          "name": "operator",
          "type": "address"
        }
      ],
      "name": "isApprovedForAll",
      "outputs": [
        {
          "internalType": "bool",
          "name": "",
          "type": "bool"
        }
      ],
      "stateMutability": "view",
      "type": "function"
    },
    {
      "inputs": [
        {
          "internalType": "string",
          "name": "_name",
          "type": "string"
        },
        {
          "internalType": "uint256",
          "name": "_cost",
          "type": "uint256"
        },
        {
          "internalType": "uint256",
          "name": "_maxTickets",
          "type": "uint256"
        },
        {
          "internalType": "string",
          "name": "_date",
          "type": "string"
        },
        {
          "internalType": "string",
          "name": "_time",
          "type": "string"
        },
        {
          "internalType": "string",
          "name": "_location",
          "type": "string"
        }
      ],
      "name": "list",
      "outputs": [],
      "stateMutability": "nonpayable",
      "type": "function"
    },
    {
      "inputs": [
        {
          "internalType": "uint256",
          "name": "_id",
          "type": "uint256"
        },
        {
          "internalType": "uint256",
          "name": "_seat",
          "type": "uint256"
        }
      ],
      "name": "mint",
      "outputs": [],
      "stateMutability": "payable",
      "type": "function"
    },
    {
      "inputs": [],
      "name": "name",
      "outputs": [
        {
          "internalType": "string",
          "name": "",
          "type": "string"
        }
      ],
      "stateMutability": "view",
      "type": "function"
    },
    {
      "inputs": [],
      "name": "owner",
      "outputs": [
        {
          "internalType": "address",
          "name": "",
          "type": "address"
        }
      ],
      "stateMutability": "view",
      "type": "function"
    },
    {
      "inputs": [
        {
          "internalType": "uint256",
          "name": "tokenId",
          "type": "uint256"
        }
      ],
      "name": "ownerOf",
      "outputs": [
        {
          "internalType": "address",
          "name": "",
          "type": "address"
        }
      ],
      "stateMutability": "view",
      "type": "function"
    },
    {
      "inputs": [
        {
          "internalType": "address",
          "name": "from",
          "type": "address"
        },
        {
          "internalType": "address",
          "name": "to",
          "type": "address"
        },
        {
          "internalType": "uint256",
          "name": "tokenId",
          "type": "uint256"
        }
      ],
      "name": "safeTransferFrom",
      "outputs": [],
      "stateMutability": "nonpayable",
      "type": "function"
    },
    {
      "inputs": [
        {
          "internalType": "address",
          "name": "from",
          "type": "address"
        },
        {
          "internalType": "address",
          "name": "to",
          "type": "address"
        },
        {
          "internalType": "uint256",
          "name": "tokenId",
          "type": "uint256"
        },
        {
          "internalType": "bytes",
          "name": "data",
          "type": "bytes"
        }
      ],
      "name": "safeTransferFrom",
      "outputs": [],
      "stateMutability": "nonpayable",
      "type": "function"
    },
    {
      "inputs": [
        {
          "internalType": "uint256",
          "name": "",
          "type": "uint256"
        },
        {
          "internalType": "uint256",
          "name": "",
          "type": "uint256"
        }
      ],
      "name": "seatTaken",
      "outputs": [
        {
          "internalType": "address",
          "name": "",
          "type": "address"
        }
      ],
      "stateMutability": "view",
      "type": "function"
    },
    {
      "inputs": [
        {
          "internalType": "address",
          "name": "operator",
          "type": "address"
        },
        {
          "internalType": "bool",
          "name": "approved",
          "type": "bool"
        }
      ],
      "name": "setApprovalForAll",
      "outputs": [],
      "stateMutability": "nonpayable",
      "type": "function"
    },
    {
      "inputs": [
        {
          "internalType": "bytes4",
          "name": "interfaceId",
          "type": "bytes4"
        }
      ],
      "name": "supportsInterface",
      "outputs": [
        {
          "internalType": "bool",
          "name": "",
          "type": "bool"
        }
      ],
      "stateMutability": "view",
      "type": "function"
    },
    {
      "inputs": [],
      "name": "symbol",
      "outputs": [
        {
          "internalType": "string",
          "name": "",
          "type": "string"
        }
      ],
      "stateMutability": "view",
      "type": "function"
    },
    {
      "inputs": [
        {
          "internalType": "uint256",
          "name": "tokenId",
          "type": "uint256"
        }
      ],
      "name": "tokenURI",
      "outputs": [
        {
          "internalType": "string",
          "name": "",
          "type": "string"
        }
      ],
      "stateMutability": "view",
      "type": "function"
    },
    {
      "inputs": [],
      "name": "totalOccasions",
      "outputs": [
        {
          "internalType": "uint256",
          "name": "",
          "type": "uint256"
        }
      ],
      "stateMutability": "view",
      "type": "function"
    },
    {
      "inputs": [],
      "name": "totalSupply",
      "outputs": [
        {
          "internalType": "uint256",
          "name": "",
          "type": "uint256"
        }
      ],
      "stateMutability": "view",
      "type": "function"
    },
    {
      "inputs": [
        {
          "internalType": "address",
          "name": "from",
          "type": "address"
        },
        {
          "internalType": "address",
          "name": "to",
          "type": "address"
        },
        {
          "internalType": "uint256",
          "name": "tokenId",
          "type": "uint256"
        }
      ],
      "name": "transferFrom",
      "outputs": [],
      "stateMutability": "nonpayable",
      "type": "function"
    },
    {
      "inputs": [],
      "name": "withdraw",
      "outputs": [],
      "stateMutability": "nonpayable",
      "type": "function"
    }
  ],
  "bytecode": "0x60806040523480156200001157600080fd5b5060405162001e5f38038062001e5f833981016040819052620000349162000139565b8181600062000044838262000234565b50600162000053828262000234565b5050600680546001600160a01b031916331790555062000300915050565b634e487b7160e01b600052604160045260246000fd5b600082601f8301126200009957600080fd5b81516001600160401b0380821115620000b657620000b662000071565b604051601f8301601f19908116603f01168101908282118183101715620000e157620000e162000071565b8160405283815260209250866020858801011115620000ff57600080fd5b600091505b8382101562000123578582018301518183018401529082019062000104565b6000602085830101528094505050505092915050565b600080604083850312156200014d57600080fd5b82516001600160401b03808211156200016557600080fd5b620001738683870162000087565b935060208501519150808211156200018a57600080fd5b50620001998582860162000087565b9150509250929050565b600181811c90821680620001b857607f821691505b602082108103620001d957634e487b7160e01b600052602260045260246000fd5b50919050565b601f8211156200022f576000816000526020600020601f850160051c810160208610156200020a5750805b601f850160051c820191505b818110156200022b5782815560010162000216565b5050505b505050565b81516001600160401b0381111562000250576200025062000071565b6200026881620002618454620001a3565b84620001df565b602080601f831160018114620002a05760008415620002875750858301515b600019600386901b1c1916600185901b1785556200022b565b600085815260208120601f198616915b82811015620002d157888601518255948401946001909101908401620002b0565b5085821015620002f05787850151600019600388901b60f8161c191681555b5050505050600190811b01905550565b611b4f80620003106000396000f3fe6080604052600436106101405760003560e01c806370a08231116100b65780639cb04aef1161006f5780639cb04aef14610387578063a22cb465146103c2578063af296da1146103e2578063b88d4fde14610423578063c87b56dd14610443578063e985e9c51461046357600080fd5b806370a08231146102cf57806374bc8656146102ef5780638da5cb5b1461031c578063953865c11461033c57806395d89b41146103525780639a382f0f1461036757600080fd5b806318160ddd1161010857806318160ddd146102235780631b2ef1ca1461024757806323b872dd1461025a5780633ccfd60b1461027a57806342842e0e1461028f5780636352211e146102af57600080fd5b806301ffc9a71461014557806306fdde031461017a578063081812fc1461019c578063095ea7b3146101d45780630ef7ec74146101f6575b600080fd5b34801561015157600080fd5b50610165610160366004611458565b610483565b60405190151581526020015b60405180910390f35b34801561018657600080fd5b5061018f6104d5565b60405161017191906114c5565b3480156101a857600080fd5b506101bc6101b73660046114d8565b610567565b6040516001600160a01b039091168152602001610171565b3480156101e057600080fd5b506101f46101ef36600461150d565b610590565b005b34801561020257600080fd5b506102166102113660046114d8565b61059f565b6040516101719190611537565b34801561022f57600080fd5b5061023960085481565b604051908152602001610171565b6101f461025536600461157b565b610601565b34801561026657600080fd5b506101f461027536600461159d565b610733565b34801561028657600080fd5b506101f46107c3565b34801561029b57600080fd5b506101f46102aa36600461159d565b61083d565b3480156102bb57600080fd5b506101bc6102ca3660046114d8565b61085d565b3480156102db57600080fd5b506102396102ea3660046115d9565b610868565b3480156102fb57600080fd5b5061030f61030a3660046114d8565b6108b0565b60405161017191906115f4565b34801561032857600080fd5b506006546101bc906001600160a01b031681565b34801561034857600080fd5b5061023960075481565b34801561035e57600080fd5b5061018f610b8e565b34801561037357600080fd5b506101f4610382366004611749565b610b9d565b34801561039357600080fd5b506101656103a2366004611808565b600a60209081526000928352604080842090915290825290205460ff1681565b3480156103ce57600080fd5b506101f46103dd366004611834565b610ca1565b3480156103ee57600080fd5b506101bc6103fd36600461157b565b600b6020908152600092835260408084209091529082529020546001600160a01b031681565b34801561042f57600080fd5b506101f461043e366004611870565b610cac565b34801561044f57600080fd5b5061018f61045e3660046114d8565b610cc4565b34801561046f57600080fd5b5061016561047e3660046118ec565b610d39565b60006001600160e01b031982166380ac58cd60e01b14806104b457506001600160e01b03198216635b5e139f60e01b145b806104cf57506301ffc9a760e01b6001600160e01b03198316145b92915050565b6060600080546104e490611916565b80601f016020809104026020016040519081016040528092919081815260200182805461051090611916565b801561055d5780601f106105325761010080835404028352916020019161055d565b820191906000526020600020905b81548152906001019060200180831161054057829003601f168201915b5050505050905090565b600061057282610d67565b506000828152600460205260409020546001600160a01b03166104cf565b61059b828233610da0565b5050565b6000818152600c60209081526040918290208054835181840281018401909452808452606093928301828280156105f557602002820191906000526020600020905b8154815260200190600101908083116105e1575b50505050509050919050565b8160000361060e57600080fd5b60075482111561061d57600080fd5b60008281526009602052604090206002015434101561063b57600080fd5b6000828152600b602090815260408083208484529091529020546001600160a01b03161561066857600080fd5b60008281526009602052604090206004015481111561068657600080fd5b60008281526009602052604081206003018054600192906106a8908490611966565b90915550506000828152600a6020908152604080832033808552908352818420805460ff19166001908117909155868552600b8452828520868652845282852080546001600160a01b031916909217909155858452600c835290832080549182018155835290822001829055600880549161072283611979565b919050555061059b33600854610dad565b6001600160a01b03821661076257604051633250574960e11b8152600060048201526024015b60405180910390fd5b600061076f838333610dc7565b9050836001600160a01b0316816001600160a01b0316146107bd576040516364283d7b60e01b81526001600160a01b0380861660048301526024820184905282166044820152606401610759565b50505050565b6006546001600160a01b031633146107da57600080fd5b6006546040516000916001600160a01b03169047908381818185875af1925050503d8060008114610827576040519150601f19603f3d011682016040523d82523d6000602084013e61082c565b606091505b505090508061083a57600080fd5b50565b61085883838360405180602001604052806000815250610cac565b505050565b60006104cf82610d67565b60006001600160a01b038216610894576040516322718ad960e21b815260006004820152602401610759565b506001600160a01b031660009081526003602052604090205490565b6108f860405180610100016040528060008152602001606081526020016000815260200160008152602001600081526020016060815260200160608152602001606081525090565b60096000838152602001908152602001600020604051806101000160405290816000820154815260200160018201805461093190611916565b80601f016020809104026020016040519081016040528092919081815260200182805461095d90611916565b80156109aa5780601f1061097f576101008083540402835291602001916109aa565b820191906000526020600020905b81548152906001019060200180831161098d57829003601f168201915b505050505081526020016002820154815260200160038201548152602001600482015481526020016005820180546109e190611916565b80601f0160208091040260200160405190810160405280929190818152602001828054610a0d90611916565b8015610a5a5780601f10610a2f57610100808354040283529160200191610a5a565b820191906000526020600020905b815481529060010190602001808311610a3d57829003601f168201915b50505050508152602001600682018054610a7390611916565b80601f0160208091040260200160405190810160405280929190818152602001828054610a9f90611916565b8015610aec5780601f10610ac157610100808354040283529160200191610aec565b820191906000526020600020905b815481529060010190602001808311610acf57829003601f168201915b50505050508152602001600782018054610b0590611916565b80601f0160208091040260200160405190810160405280929190818152602001828054610b3190611916565b8015610b7e5780601f10610b5357610100808354040283529160200191610b7e565b820191906000526020600020905b815481529060010190602001808311610b6157829003601f168201915b5050505050815250509050919050565b6060600180546104e490611916565b6006546001600160a01b03163314610bb457600080fd5b60078054906000610bc483611979565b9190505550604051806101000160405280600754815260200187815260200186815260200185815260200185815260200184815260200183815260200182815250600960006007548152602001908152602001600020600082015181600001556020820151816001019081610c3991906119da565b5060408201516002820155606082015160038201556080820151600482015560a08201516005820190610c6c90826119da565b5060c08201516006820190610c8190826119da565b5060e08201516007820190610c9690826119da565b505050505050505050565b61059b338383610ec0565b610cb7848484610733565b6107bd3385858585610f5f565b6060610ccf82610d67565b506000610ce760408051602081019091526000815290565b90506000815111610d075760405180602001604052806000815250610d32565b80610d118461108a565b604051602001610d22929190611a9a565b6040516020818303038152906040525b9392505050565b6001600160a01b03918216600090815260056020908152604080832093909416825291909152205460ff1690565b6000818152600260205260408120546001600160a01b0316806104cf57604051637e27328960e01b815260048101849052602401610759565b610858838383600161111d565b61059b828260405180602001604052806000815250611223565b6000828152600260205260408120546001600160a01b0390811690831615610df457610df481848661123b565b6001600160a01b03811615610e3257610e1160008560008061111d565b6001600160a01b038116600090815260036020526040902080546000190190555b6001600160a01b03851615610e61576001600160a01b0385166000908152600360205260409020805460010190555b60008481526002602052604080822080546001600160a01b0319166001600160a01b0389811691821790925591518793918516917fddf252ad1be2c89b69c2b068fc378daa952ba7f163c4a11628f55a4df523b3ef91a4949350505050565b6001600160a01b038216610ef257604051630b61174360e31b81526001600160a01b0383166004820152602401610759565b6001600160a01b03838116600081815260056020908152604080832094871680845294825291829020805460ff191686151590811790915591519182527f17307eab39ab6107e8899845ad3d59bd9653f200f220920489ca2b5937696c31910160405180910390a3505050565b6001600160a01b0383163b1561108357604051630a85bd0160e11b81526001600160a01b0384169063150b7a0290610fa1908890889087908790600401611ac9565b6020604051808303816000875af1925050508015610fdc575060408051601f3d908101601f19168201909252610fd991810190611afc565b60015b611045573d80801561100a576040519150601f19603f3d011682016040523d82523d6000602084013e61100f565b606091505b50805160000361103d57604051633250574960e11b81526001600160a01b0385166004820152602401610759565b805160208201fd5b6001600160e01b03198116630a85bd0160e11b1461108157604051633250574960e11b81526001600160a01b0385166004820152602401610759565b505b5050505050565b606060006110978361129f565b600101905060008167ffffffffffffffff8111156110b7576110b761169d565b6040519080825280601f01601f1916602001820160405280156110e1576020820181803683370190505b5090508181016020015b600019016f181899199a1a9b1b9c1cb0b131b232b360811b600a86061a8153600a85049450846110eb57509392505050565b808061113157506001600160a01b03821615155b156111f357600061114184610d67565b90506001600160a01b0383161580159061116d5750826001600160a01b0316816001600160a01b031614155b8015611180575061117e8184610d39565b155b156111a95760405163a9fbf51f60e01b81526001600160a01b0384166004820152602401610759565b81156111f15783856001600160a01b0316826001600160a01b03167f8c5be1e5ebec7d5bd14f71427d1e84f3dd0314c0f7b2291e5b200ac8c7c3b92560405160405180910390a45b505b5050600090815260046020526040902080546001600160a01b0319166001600160a01b0392909216919091179055565b61122d8383611377565b610858336000858585610f5f565b6112468383836113dc565b610858576001600160a01b03831661127457604051637e27328960e01b815260048101829052602401610759565b60405163177e802f60e01b81526001600160a01b038316600482015260248101829052604401610759565b60008072184f03e93ff9f4daa797ed6e38ed64bf6a1f0160401b83106112de5772184f03e93ff9f4daa797ed6e38ed64bf6a1f0160401b830492506040015b6d04ee2d6d415b85acef8100000000831061130a576d04ee2d6d415b85acef8100000000830492506020015b662386f26fc10000831061132857662386f26fc10000830492506010015b6305f5e1008310611340576305f5e100830492506008015b612710831061135457612710830492506004015b60648310611366576064830492506002015b600a83106104cf5760010192915050565b6001600160a01b0382166113a157604051633250574960e11b815260006004820152602401610759565b60006113af83836000610dc7565b90506001600160a01b03811615610858576040516339e3563760e11b815260006004820152602401610759565b60006001600160a01b0383161580159061143a5750826001600160a01b0316846001600160a01b0316148061141657506114168484610d39565b8061143a57506000828152600460205260409020546001600160a01b038481169116145b949350505050565b6001600160e01b03198116811461083a57600080fd5b60006020828403121561146a57600080fd5b8135610d3281611442565b60005b83811015611490578181015183820152602001611478565b50506000910152565b600081518084526114b1816020860160208601611475565b601f01601f19169290920160200192915050565b602081526000610d326020830184611499565b6000602082840312156114ea57600080fd5b5035919050565b80356001600160a01b038116811461150857600080fd5b919050565b6000806040838503121561152057600080fd5b611529836114f1565b946020939093013593505050565b6020808252825182820181905260009190848201906040850190845b8181101561156f57835183529284019291840191600101611553565b50909695505050505050565b6000806040838503121561158e57600080fd5b50508035926020909101359150565b6000806000606084860312156115b257600080fd5b6115bb846114f1565b92506115c9602085016114f1565b9150604084013590509250925092565b6000602082840312156115eb57600080fd5b610d32826114f1565b60208152815160208201526000602083015161010080604085015261161d610120850183611499565b91506040850151606085015260608501516080850152608085015160a085015260a0850151601f19808685030160c08701526116598483611499565b935060c08701519150808685030160e08701526116768483611499565b935060e08701519150808685030183870152506116938382611499565b9695505050505050565b634e487b7160e01b600052604160045260246000fd5b600067ffffffffffffffff808411156116ce576116ce61169d565b604051601f8501601f19908116603f011681019082821181831017156116f6576116f661169d565b8160405280935085815286868601111561170f57600080fd5b858560208301376000602087830101525050509392505050565b600082601f83011261173a57600080fd5b610d32838335602085016116b3565b60008060008060008060c0878903121561176257600080fd5b863567ffffffffffffffff8082111561177a57600080fd5b6117868a838b01611729565b9750602089013596506040890135955060608901359150808211156117aa57600080fd5b6117b68a838b01611729565b945060808901359150808211156117cc57600080fd5b6117d88a838b01611729565b935060a08901359150808211156117ee57600080fd5b506117fb89828a01611729565b9150509295509295509295565b6000806040838503121561181b57600080fd5b8235915061182b602084016114f1565b90509250929050565b6000806040838503121561184757600080fd5b611850836114f1565b91506020830135801515811461186557600080fd5b809150509250929050565b6000806000806080858703121561188657600080fd5b61188f856114f1565b935061189d602086016114f1565b925060408501359150606085013567ffffffffffffffff8111156118c057600080fd5b8501601f810187136118d157600080fd5b6118e0878235602084016116b3565b91505092959194509250565b600080604083850312156118ff57600080fd5b611908836114f1565b915061182b602084016114f1565b600181811c9082168061192a57607f821691505b60208210810361194a57634e487b7160e01b600052602260045260246000fd5b50919050565b634e487b7160e01b600052601160045260246000fd5b818103818111156104cf576104cf611950565b60006001820161198b5761198b611950565b5060010190565b601f821115610858576000816000526020600020601f850160051c810160208610156119bb5750805b601f850160051c820191505b81811015611081578281556001016119c7565b815167ffffffffffffffff8111156119f4576119f461169d565b611a0881611a028454611916565b84611992565b602080601f831160018114611a3d5760008415611a255750858301515b600019600386901b1c1916600185901b178555611081565b600085815260208120601f198616915b82811015611a6c57888601518255948401946001909101908401611a4d565b5085821015611a8a5787850151600019600388901b60f8161c191681555b5050505050600190811b01905550565b60008351611aac818460208801611475565b835190830190611ac0818360208801611475565b01949350505050565b6001600160a01b038581168252841660208201526040810183905260806060820181905260009061169390830184611499565b600060208284031215611b0e57600080fd5b8151610d328161144256fea2646970667358221220c5376f806f46b34e722b9103ba0b22e51947d303743a5d28fac042225cdba08964736f6c63430008180033",
  "linkReferences": {},
  "deployedLinkReferences": {}
}